{
  "abi": [
    {
      "inputs": [
        {
          "internalType": "uint256",
          "name": "minimum",
          "type": "uint256"
        }
      ],
      "name": "createCampaign",
      "outputs": [],
      "stateMutability": "nonpayable",
      "type": "function"
    },
    {
      "inputs": [
        {
          "internalType": "uint256",
          "name": "",
          "type": "uint256"
        }
      ],
      "name": "deployedCampaigns",
      "outputs": [
        {
          "internalType": "contract Campaign",
          "name": "",
          "type": "address"
        }
      ],
      "stateMutability": "view",
      "type": "function"
    },
    {
      "inputs": [],
      "name": "getDeployedCampaigns",
      "outputs": [
        {
          "internalType": "contract Campaign[]",
          "name": "",
          "type": "address[]"
        }
      ],
      "stateMutability": "view",
      "type": "function"
    }
  ],
  "devdoc": {
    "kind": "dev",
    "methods": {},
    "version": 1
  },
  "evm": {
    "assembly": "    /* \"Campaign.sol\":57:417  contract CampaignFactory {... */\n  mstore(0x40, 0x80)\n  callvalue\n  dup1\n  iszero\n  tag_1\n  jumpi\n  0x00\n  dup1\n  revert\ntag_1:\n  pop\n  dataSize(sub_0)\n  dup1\n  dataOffset(sub_0)\n  0x00\n  codecopy\n  0x00\n  return\nstop\n\nsub_0: assembly {\n        /* \"Campaign.sol\":57:417  contract CampaignFactory {... */\n      mstore(0x40, 0x80)\n      callvalue\n      dup1\n      iszero\n      tag_1\n      jumpi\n      0x00\n      dup1\n      revert\n    tag_1:\n      pop\n      jumpi(tag_2, lt(calldatasize, 0x04))\n      shr(0xe0, calldataload(0x00))\n      dup1\n      0x339d50a5\n      eq\n      tag_3\n      jumpi\n      dup1\n      0x4acb9d4f\n      eq\n      tag_4\n      jumpi\n      dup1\n      0xa3303a75\n      eq\n      tag_5\n      jumpi\n    tag_2:\n      0x00\n      dup1\n      revert\n        /* \"Campaign.sol\":88:123  Campaign[] public deployedCampaigns */\n    tag_3:\n      tag_6\n      0x04\n      dup1\n      calldatasize\n      sub\n      dup2\n      add\n      swap1\n      tag_7\n      swap2\n      swap1\n      tag_8\n      jump\t// in\n    tag_7:\n      tag_9\n      jump\t// in\n    tag_6:\n      mload(0x40)\n      tag_10\n      swap2\n      swap1\n      tag_11\n      jump\t// in\n    tag_10:\n      mload(0x40)\n      dup1\n      swap2\n      sub\n      swap1\n      return\n        /* \"Campaign.sol\":302:415  function getDeployedCampaigns() public view returns (Campaign[] memory) {... */\n    tag_4:\n      tag_12\n      tag_13\n      jump\t// in\n    tag_12:\n      mload(0x40)\n      tag_14\n      swap2\n      swap1\n      tag_15\n      jump\t// in\n    tag_14:\n      mload(0x40)\n      dup1\n      swap2\n      sub\n      swap1\n      return\n        /* \"Campaign.sol\":130:296  function createCampaign(uint256 minimum) public {... */\n    tag_5:\n      tag_16\n      0x04\n      dup1\n      calldatasize\n      sub\n      dup2\n      add\n      swap1\n      tag_17\n      swap2\n      swap1\n      tag_8\n      jump\t// in\n    tag_17:\n      tag_18\n      jump\t// in\n    tag_16:\n      stop\n        /* \"Campaign.sol\":88:123  Campaign[] public deployedCampaigns */\n    tag_9:\n      0x00\n      dup2\n      dup2\n      sload\n      dup2\n      lt\n      tag_19\n      jumpi\n      0x00\n      dup1\n      revert\n    tag_19:\n      swap1\n      0x00\n      mstore\n      keccak256(0x00, 0x20)\n      add\n      0x00\n      swap2\n      pop\n      sload\n      swap1\n      0x0100\n      exp\n      swap1\n      div\n      0xffffffffffffffffffffffffffffffffffffffff\n      and\n      dup2\n      jump\t// out\n        /* \"Campaign.sol\":302:415  function getDeployedCampaigns() public view returns (Campaign[] memory) {... */\n    tag_13:\n        /* \"Campaign.sol\":355:372  Campaign[] memory */\n      0x60\n        /* \"Campaign.sol\":391:408  deployedCampaigns */\n      0x00\n        /* \"Campaign.sol\":384:408  return deployedCampaigns */\n      dup1\n      sload\n      dup1\n      0x20\n      mul\n      0x20\n      add\n      mload(0x40)\n      swap1\n      dup2\n      add\n      0x40\n      mstore\n      dup1\n      swap3\n      swap2\n      swap1\n      dup2\n      dup2\n      mstore\n      0x20\n      add\n      dup3\n      dup1\n      sload\n      dup1\n      iszero\n      tag_22\n      jumpi\n      0x20\n      mul\n      dup3\n      add\n      swap2\n      swap1\n      0x00\n      mstore\n      keccak256(0x00, 0x20)\n      swap1\n    tag_23:\n      dup2\n      0x00\n      swap1\n      sload\n      swap1\n      0x0100\n      exp\n      swap1\n      div\n      0xffffffffffffffffffffffffffffffffffffffff\n      and\n      0xffffffffffffffffffffffffffffffffffffffff\n      and\n      dup2\n      mstore\n      0x20\n      add\n      swap1\n      0x01\n      add\n      swap1\n      dup1\n      dup4\n      gt\n      tag_23\n      jumpi\n    tag_22:\n      pop\n      pop\n      pop\n      pop\n      pop\n      swap1\n      pop\n        /* \"Campaign.sol\":302:415  function getDeployedCampaigns() public view returns (Campaign[] memory) {... */\n      swap1\n      jump\t// out\n        /* \"Campaign.sol\":130:296  function createCampaign(uint256 minimum) public {... */\n    tag_18:\n        /* \"Campaign.sol\":188:208  Campaign newCampaign */\n      0x00\n        /* \"Campaign.sol\":224:231  minimum */\n      dup2\n        /* \"Campaign.sol\":233:243  msg.sender */\n      caller\n        /* \"Campaign.sol\":211:244  new Campaign(minimum, msg.sender) */\n      mload(0x40)\n      tag_25\n      swap1\n      tag_26\n      jump\t// in\n    tag_25:\n      tag_27\n      swap3\n      swap2\n      swap1\n      tag_28\n      jump\t// in\n    tag_27:\n      mload(0x40)\n      dup1\n      swap2\n      sub\n      swap1\n      0x00\n      create\n      dup1\n      iszero\n      dup1\n      iszero\n      tag_29\n      jumpi\n      returndatasize\n      0x00\n      dup1\n      returndatacopy\n      revert(0x00, returndatasize)\n    tag_29:\n      pop\n        /* \"Campaign.sol\":188:244  Campaign newCampaign = new Campaign(minimum, msg.sender) */\n      swap1\n      pop\n        /* \"Campaign.sol\":254:271  deployedCampaigns */\n      0x00\n        /* \"Campaign.sol\":277:288  newCampaign */\n      dup2\n        /* \"Campaign.sol\":254:289  deployedCampaigns.push(newCampaign) */\n      swap1\n      dup1\n      0x01\n      dup2\n      sload\n      add\n      dup1\n      dup3\n      sstore\n      dup1\n      swap2\n      pop\n      pop\n      0x01\n      swap1\n      sub\n      swap1\n      0x00\n      mstore\n      keccak256(0x00, 0x20)\n      add\n      0x00\n      swap1\n      swap2\n      swap1\n      swap2\n      swap1\n      swap2\n      0x0100\n      exp\n      dup2\n      sload\n      dup2\n      0xffffffffffffffffffffffffffffffffffffffff\n      mul\n      not\n      and\n      swap1\n      dup4\n      0xffffffffffffffffffffffffffffffffffffffff\n      and\n      mul\n      or\n      swap1\n      sstore\n      pop\n        /* \"Campaign.sol\":178:296  {... */\n      pop\n        /* \"Campaign.sol\":130:296  function createCampaign(uint256 minimum) public {... */\n      pop\n      jump\t// out\n    tag_26:\n      dataSize(sub_0)\n      dup1\n      dataOffset(sub_0)\n      dup4\n      codecopy\n      add\n      swap1\n      jump\t// out\n        /* \"#utility.yul\":88:205   */\n    tag_32:\n        /* \"#utility.yul\":197:198   */\n      0x00\n        /* \"#utility.yul\":194:195   */\n      dup1\n        /* \"#utility.yul\":187:199   */\n      revert\n        /* \"#utility.yul\":334:411   */\n    tag_34:\n        /* \"#utility.yul\":371:378   */\n      0x00\n        /* \"#utility.yul\":400:405   */\n      dup2\n        /* \"#utility.yul\":389:405   */\n      swap1\n      pop\n        /* \"#utility.yul\":334:411   */\n      swap2\n      swap1\n      pop\n      jump\t// out\n        /* \"#utility.yul\":417:539   */\n    tag_35:\n        /* \"#utility.yul\":490:514   */\n      tag_59\n        /* \"#utility.yul\":508:513   */\n      dup2\n        /* \"#utility.yul\":490:514   */\n      tag_34\n      jump\t// in\n    tag_59:\n        /* \"#utility.yul\":483:488   */\n      dup2\n        /* \"#utility.yul\":480:515   */\n      eq\n        /* \"#utility.yul\":470:533   */\n      tag_60\n      jumpi\n        /* \"#utility.yul\":529:530   */\n      0x00\n        /* \"#utility.yul\":526:527   */\n      dup1\n        /* \"#utility.yul\":519:531   */\n      revert\n        /* \"#utility.yul\":470:533   */\n    tag_60:\n        /* \"#utility.yul\":417:539   */\n      pop\n      jump\t// out\n        /* \"#utility.yul\":545:684   */\n    tag_36:\n        /* \"#utility.yul\":591:596   */\n      0x00\n        /* \"#utility.yul\":629:635   */\n      dup2\n        /* \"#utility.yul\":616:636   */\n      calldataload\n        /* \"#utility.yul\":607:636   */\n      swap1\n      pop\n        /* \"#utility.yul\":645:678   */\n      tag_62\n        /* \"#utility.yul\":672:677   */\n      dup2\n        /* \"#utility.yul\":645:678   */\n      tag_35\n      jump\t// in\n    tag_62:\n        /* \"#utility.yul\":545:684   */\n      swap3\n      swap2\n      pop\n      pop\n      jump\t// out\n        /* \"#utility.yul\":690:1019   */\n    tag_8:\n        /* \"#utility.yul\":749:755   */\n      0x00\n        /* \"#utility.yul\":798:800   */\n      0x20\n        /* \"#utility.yul\":786:795   */\n      dup3\n        /* \"#utility.yul\":777:784   */\n      dup5\n        /* \"#utility.yul\":773:796   */\n      sub\n        /* \"#utility.yul\":769:801   */\n      slt\n        /* \"#utility.yul\":766:885   */\n      iszero\n      tag_64\n      jumpi\n        /* \"#utility.yul\":804:883   */\n      tag_65\n      tag_32\n      jump\t// in\n    tag_65:\n        /* \"#utility.yul\":766:885   */\n    tag_64:\n        /* \"#utility.yul\":924:925   */\n      0x00\n        /* \"#utility.yul\":949:1002   */\n      tag_66\n        /* \"#utility.yul\":994:1001   */\n      dup5\n        /* \"#utility.yul\":985:991   */\n      dup3\n        /* \"#utility.yul\":974:983   */\n      dup6\n        /* \"#utility.yul\":970:992   */\n      add\n        /* \"#utility.yul\":949:1002   */\n      tag_36\n      jump\t// in\n    tag_66:\n        /* \"#utility.yul\":939:1002   */\n      swap2\n      pop\n        /* \"#utility.yul\":895:1012   */\n      pop\n        /* \"#utility.yul\":690:1019   */\n      swap3\n      swap2\n      pop\n      pop\n      jump\t// out\n        /* \"#utility.yul\":1025:1151   */\n    tag_37:\n        /* \"#utility.yul\":1062:1069   */\n      0x00\n        /* \"#utility.yul\":1102:1144   */\n      0xffffffffffffffffffffffffffffffffffffffff\n        /* \"#utility.yul\":1095:1100   */\n      dup3\n        /* \"#utility.yul\":1091:1145   */\n      and\n        /* \"#utility.yul\":1080:1145   */\n      swap1\n      pop\n        /* \"#utility.yul\":1025:1151   */\n      swap2\n      swap1\n      pop\n      jump\t// out\n        /* \"#utility.yul\":1157:1217   */\n    tag_38:\n        /* \"#utility.yul\":1185:1188   */\n      0x00\n        /* \"#utility.yul\":1206:1211   */\n      dup2\n        /* \"#utility.yul\":1199:1211   */\n      swap1\n      pop\n        /* \"#utility.yul\":1157:1217   */\n      swap2\n      swap1\n      pop\n      jump\t// out\n        /* \"#utility.yul\":1223:1365   */\n    tag_39:\n        /* \"#utility.yul\":1273:1282   */\n      0x00\n        /* \"#utility.yul\":1306:1359   */\n      tag_70\n        /* \"#utility.yul\":1324:1358   */\n      tag_71\n        /* \"#utility.yul\":1333:1357   */\n      tag_72\n        /* \"#utility.yul\":1351:1356   */\n      dup5\n        /* \"#utility.yul\":1333:1357   */\n      tag_37\n      jump\t// in\n    tag_72:\n        /* \"#utility.yul\":1324:1358   */\n      tag_38\n      jump\t// in\n    tag_71:\n        /* \"#utility.yul\":1306:1359   */\n      tag_37\n      jump\t// in\n    tag_70:\n        /* \"#utility.yul\":1293:1359   */\n      swap1\n      pop\n        /* \"#utility.yul\":1223:1365   */\n      swap2\n      swap1\n      pop\n      jump\t// out\n        /* \"#utility.yul\":1371:1497   */\n    tag_40:\n        /* \"#utility.yul\":1421:1430   */\n      0x00\n        /* \"#utility.yul\":1454:1491   */\n      tag_74\n        /* \"#utility.yul\":1485:1490   */\n      dup3\n        /* \"#utility.yul\":1454:1491   */\n      tag_39\n      jump\t// in\n    tag_74:\n        /* \"#utility.yul\":1441:1491   */\n      swap1\n      pop\n        /* \"#utility.yul\":1371:1497   */\n      swap2\n      swap1\n      pop\n      jump\t// out\n        /* \"#utility.yul\":1503:1645   */\n    tag_41:\n        /* \"#utility.yul\":1569:1578   */\n      0x00\n        /* \"#utility.yul\":1602:1639   */\n      tag_76\n        /* \"#utility.yul\":1633:1638   */\n      dup3\n        /* \"#utility.yul\":1602:1639   */\n      tag_40\n      jump\t// in\n    tag_76:\n        /* \"#utility.yul\":1589:1639   */\n      swap1\n      pop\n        /* \"#utility.yul\":1503:1645   */\n      swap2\n      swap1\n      pop\n      jump\t// out\n        /* \"#utility.yul\":1651:1814   */\n    tag_42:\n        /* \"#utility.yul\":1754:1807   */\n      tag_78\n        /* \"#utility.yul\":1801:1806   */\n      dup2\n        /* \"#utility.yul\":1754:1807   */\n      tag_41\n      jump\t// in\n    tag_78:\n        /* \"#utility.yul\":1749:1752   */\n      dup3\n        /* \"#utility.yul\":1742:1808   */\n      mstore\n        /* \"#utility.yul\":1651:1814   */\n      pop\n      pop\n      jump\t// out\n        /* \"#utility.yul\":1820:2074   */\n    tag_11:\n        /* \"#utility.yul\":1929:1933   */\n      0x00\n        /* \"#utility.yul\":1967:1969   */\n      0x20\n        /* \"#utility.yul\":1956:1965   */\n      dup3\n        /* \"#utility.yul\":1952:1970   */\n      add\n        /* \"#utility.yul\":1944:1970   */\n      swap1\n      pop\n        /* \"#utility.yul\":1980:2067   */\n      tag_80\n        /* \"#utility.yul\":2064:2065   */\n      0x00\n        /* \"#utility.yul\":2053:2062   */\n      dup4\n        /* \"#utility.yul\":2049:2066   */\n      add\n        /* \"#utility.yul\":2040:2046   */\n      dup5\n        /* \"#utility.yul\":1980:2067   */\n      tag_42\n      jump\t// in\n    tag_80:\n        /* \"#utility.yul\":1820:2074   */\n      swap3\n      swap2\n      pop\n      pop\n      jump\t// out\n        /* \"#utility.yul\":2080:2210   */\n    tag_43:\n        /* \"#utility.yul\":2163:2169   */\n      0x00\n        /* \"#utility.yul\":2197:2202   */\n      dup2\n        /* \"#utility.yul\":2191:2203   */\n      mload\n        /* \"#utility.yul\":2181:2203   */\n      swap1\n      pop\n        /* \"#utility.yul\":2080:2210   */\n      swap2\n      swap1\n      pop\n      jump\t// out\n        /* \"#utility.yul\":2216:2400   */\n    tag_44:\n        /* \"#utility.yul\":2315:2326   */\n      0x00\n        /* \"#utility.yul\":2349:2355   */\n      dup3\n        /* \"#utility.yul\":2344:2347   */\n      dup3\n        /* \"#utility.yul\":2337:2356   */\n      mstore\n        /* \"#utility.yul\":2389:2393   */\n      0x20\n        /* \"#utility.yul\":2384:2387   */\n      dup3\n        /* \"#utility.yul\":2380:2394   */\n      add\n        /* \"#utility.yul\":2365:2394   */\n      swap1\n      pop\n        /* \"#utility.yul\":2216:2400   */\n      swap3\n      swap2\n      pop\n      pop\n      jump\t// out\n        /* \"#utility.yul\":2406:2554   */\n    tag_45:\n        /* \"#utility.yul\":2489:2493   */\n      0x00\n        /* \"#utility.yul\":2512:2515   */\n      dup2\n        /* \"#utility.yul\":2504:2515   */\n      swap1\n      pop\n        /* \"#utility.yul\":2542:2546   */\n      0x20\n        /* \"#utility.yul\":2537:2540   */\n      dup3\n        /* \"#utility.yul\":2533:2547   */\n      add\n        /* \"#utility.yul\":2525:2547   */\n      swap1\n      pop\n        /* \"#utility.yul\":2406:2554   */\n      swap2\n      swap1\n      pop\n      jump\t// out\n        /* \"#utility.yul\":2560:2713   */\n    tag_46:\n        /* \"#utility.yul\":2653:2706   */\n      tag_85\n        /* \"#utility.yul\":2700:2705   */\n      dup2\n        /* \"#utility.yul\":2653:2706   */\n      tag_41\n      jump\t// in\n    tag_85:\n        /* \"#utility.yul\":2648:2651   */\n      dup3\n        /* \"#utility.yul\":2641:2707   */\n      mstore\n        /* \"#utility.yul\":2560:2713   */\n      pop\n      pop\n      jump\t// out\n        /* \"#utility.yul\":2719:2930   */\n    tag_47:\n        /* \"#utility.yul\":2804:2814   */\n      0x00\n        /* \"#utility.yul\":2825:2887   */\n      tag_87\n        /* \"#utility.yul\":2883:2886   */\n      dup4\n        /* \"#utility.yul\":2875:2881   */\n      dup4\n        /* \"#utility.yul\":2825:2887   */\n      tag_46\n      jump\t// in\n    tag_87:\n        /* \"#utility.yul\":2919:2923   */\n      0x20\n        /* \"#utility.yul\":2914:2917   */\n      dup4\n        /* \"#utility.yul\":2910:2924   */\n      add\n        /* \"#utility.yul\":2896:2924   */\n      swap1\n      pop\n        /* \"#utility.yul\":2719:2930   */\n      swap3\n      swap2\n      pop\n      pop\n      jump\t// out\n        /* \"#utility.yul\":2936:3065   */\n    tag_48:\n        /* \"#utility.yul\":3022:3026   */\n      0x00\n        /* \"#utility.yul\":3054:3058   */\n      0x20\n        /* \"#utility.yul\":3049:3052   */\n      dup3\n        /* \"#utility.yul\":3045:3059   */\n      add\n        /* \"#utility.yul\":3037:3059   */\n      swap1\n      pop\n        /* \"#utility.yul\":2936:3065   */\n      swap2\n      swap1\n      pop\n      jump\t// out\n        /* \"#utility.yul\":3111:3923   */\n    tag_49:\n        /* \"#utility.yul\":3246:3249   */\n      0x00\n        /* \"#utility.yul\":3275:3345   */\n      tag_90\n        /* \"#utility.yul\":3339:3344   */\n      dup3\n        /* \"#utility.yul\":3275:3345   */\n      tag_43\n      jump\t// in\n    tag_90:\n        /* \"#utility.yul\":3361:3447   */\n      tag_91\n        /* \"#utility.yul\":3440:3446   */\n      dup2\n        /* \"#utility.yul\":3435:3438   */\n      dup6\n        /* \"#utility.yul\":3361:3447   */\n      tag_44\n      jump\t// in\n    tag_91:\n        /* \"#utility.yul\":3354:3447   */\n      swap4\n      pop\n        /* \"#utility.yul\":3471:3543   */\n      tag_92\n        /* \"#utility.yul\":3537:3542   */\n      dup4\n        /* \"#utility.yul\":3471:3543   */\n      tag_45\n      jump\t// in\n    tag_92:\n        /* \"#utility.yul\":3566:3573   */\n      dup1\n        /* \"#utility.yul\":3597:3598   */\n      0x00\n        /* \"#utility.yul\":3582:3898   */\n    tag_93:\n        /* \"#utility.yul\":3607:3613   */\n      dup4\n        /* \"#utility.yul\":3604:3605   */\n      dup2\n        /* \"#utility.yul\":3601:3614   */\n      lt\n        /* \"#utility.yul\":3582:3898   */\n      iszero\n      tag_95\n      jumpi\n        /* \"#utility.yul\":3683:3689   */\n      dup2\n        /* \"#utility.yul\":3677:3690   */\n      mload\n        /* \"#utility.yul\":3710:3789   */\n      tag_96\n        /* \"#utility.yul\":3785:3788   */\n      dup9\n        /* \"#utility.yul\":3770:3783   */\n      dup3\n        /* \"#utility.yul\":3710:3789   */\n      tag_47\n      jump\t// in\n    tag_96:\n        /* \"#utility.yul\":3703:3789   */\n      swap8\n      pop\n        /* \"#utility.yul\":3812:3888   */\n      tag_97\n        /* \"#utility.yul\":3881:3887   */\n      dup4\n        /* \"#utility.yul\":3812:3888   */\n      tag_48\n      jump\t// in\n    tag_97:\n        /* \"#utility.yul\":3802:3888   */\n      swap3\n      pop\n        /* \"#utility.yul\":3642:3898   */\n      pop\n        /* \"#utility.yul\":3629:3630   */\n      0x01\n        /* \"#utility.yul\":3626:3627   */\n      dup2\n        /* \"#utility.yul\":3622:3631   */\n      add\n        /* \"#utility.yul\":3617:3631   */\n      swap1\n      pop\n        /* \"#utility.yul\":3582:3898   */\n      jump(tag_93)\n    tag_95:\n        /* \"#utility.yul\":3586:3600   */\n      pop\n        /* \"#utility.yul\":3914:3917   */\n      dup6\n        /* \"#utility.yul\":3907:3917   */\n      swap4\n      pop\n        /* \"#utility.yul\":3251:3923   */\n      pop\n      pop\n      pop\n        /* \"#utility.yul\":3111:3923   */\n      swap3\n      swap2\n      pop\n      pop\n      jump\t// out\n        /* \"#utility.yul\":3929:4334   */\n    tag_15:\n        /* \"#utility.yul\":4088:4092   */\n      0x00\n        /* \"#utility.yul\":4126:4128   */\n      0x20\n        /* \"#utility.yul\":4115:4124   */\n      dup3\n        /* \"#utility.yul\":4111:4129   */\n      add\n        /* \"#utility.yul\":4103:4129   */\n      swap1\n      pop\n        /* \"#utility.yul\":4175:4184   */\n      dup2\n        /* \"#utility.yul\":4169:4173   */\n      dup2\n        /* \"#utility.yul\":4165:4185   */\n      sub\n        /* \"#utility.yul\":4161:4162   */\n      0x00\n        /* \"#utility.yul\":4150:4159   */\n      dup4\n        /* \"#utility.yul\":4146:4163   */\n      add\n        /* \"#utility.yul\":4139:4186   */\n      mstore\n        /* \"#utility.yul\":4203:4327   */\n      tag_99\n        /* \"#utility.yul\":4322:4326   */\n      dup2\n        /* \"#utility.yul\":4313:4319   */\n      dup5\n        /* \"#utility.yul\":4203:4327   */\n      tag_49\n      jump\t// in\n    tag_99:\n        /* \"#utility.yul\":4195:4327   */\n      swap1\n      pop\n        /* \"#utility.yul\":3929:4334   */\n      swap3\n      swap2\n      pop\n      pop\n      jump\t// out\n        /* \"#utility.yul\":4340:4458   */\n    tag_50:\n        /* \"#utility.yul\":4427:4451   */\n      tag_101\n        /* \"#utility.yul\":4445:4450   */\n      dup2\n        /* \"#utility.yul\":4427:4451   */\n      tag_34\n      jump\t// in\n    tag_101:\n        /* \"#utility.yul\":4422:4425   */\n      dup3\n        /* \"#utility.yul\":4415:4452   */\n      mstore\n        /* \"#utility.yul\":4340:4458   */\n      pop\n      pop\n      jump\t// out\n        /* \"#utility.yul\":4464:4560   */\n    tag_51:\n        /* \"#utility.yul\":4501:4508   */\n      0x00\n        /* \"#utility.yul\":4530:4554   */\n      tag_103\n        /* \"#utility.yul\":4548:4553   */\n      dup3\n        /* \"#utility.yul\":4530:4554   */\n      tag_37\n      jump\t// in\n    tag_103:\n        /* \"#utility.yul\":4519:4554   */\n      swap1\n      pop\n        /* \"#utility.yul\":4464:4560   */\n      swap2\n      swap1\n      pop\n      jump\t// out\n        /* \"#utility.yul\":4566:4684   */\n    tag_52:\n        /* \"#utility.yul\":4653:4677   */\n      tag_105\n        /* \"#utility.yul\":4671:4676   */\n      dup2\n        /* \"#utility.yul\":4653:4677   */\n      tag_51\n      jump\t// in\n    tag_105:\n        /* \"#utility.yul\":4648:4651   */\n      dup3\n        /* \"#utility.yul\":4641:4678   */\n      mstore\n        /* \"#utility.yul\":4566:4684   */\n      pop\n      pop\n      jump\t// out\n        /* \"#utility.yul\":4690:5022   */\n    tag_28:\n        /* \"#utility.yul\":4811:4815   */\n      0x00\n        /* \"#utility.yul\":4849:4851   */\n      0x40\n        /* \"#utility.yul\":4838:4847   */\n      dup3\n        /* \"#utility.yul\":4834:4852   */\n      add\n        /* \"#utility.yul\":4826:4852   */\n      swap1\n      pop\n        /* \"#utility.yul\":4862:4933   */\n      tag_107\n        /* \"#utility.yul\":4930:4931   */\n      0x00\n        /* \"#utility.yul\":4919:4928   */\n      dup4\n        /* \"#utility.yul\":4915:4932   */\n      add\n        /* \"#utility.yul\":4906:4912   */\n      dup6\n        /* \"#utility.yul\":4862:4933   */\n      tag_50\n      jump\t// in\n    tag_107:\n        /* \"#utility.yul\":4943:5015   */\n      tag_108\n        /* \"#utility.yul\":5011:5013   */\n      0x20\n        /* \"#utility.yul\":5000:5009   */\n      dup4\n        /* \"#utility.yul\":4996:5014   */\n      add\n        /* \"#utility.yul\":4987:4993   */\n      dup5\n        /* \"#utility.yul\":4943:5015   */\n      tag_52\n      jump\t// in\n    tag_108:\n        /* \"#utility.yul\":4690:5022   */\n      swap4\n      swap3\n      pop\n      pop\n      pop\n      jump\t// out\n    stop\n\n    sub_0: assembly {\n            /* \"Campaign.sol\":419:2283  contract Campaign {... */\n          mstore(0x40, 0x80)\n            /* \"Campaign.sol\":995:1114  constructor(uint256 minimum, address creator) {... */\n          callvalue\n          dup1\n          iszero\n          tag_1\n          jumpi\n          0x00\n          dup1\n          revert\n        tag_1:\n          pop\n          mload(0x40)\n          sub(codesize, bytecodeSize)\n          dup1\n          bytecodeSize\n          dup4\n          codecopy\n          dup2\n          dup2\n          add\n          0x40\n          mstore\n          dup2\n          add\n          swap1\n          tag_2\n          swap2\n          swap1\n          tag_3\n          jump\t// in\n        tag_2:\n            /* \"Campaign.sol\":1061:1068  creator */\n          dup1\n            /* \"Campaign.sol\":1051:1058  manager */\n          0x00\n          dup1\n            /* \"Campaign.sol\":1051:1068  manager = creator */\n          0x0100\n          exp\n          dup2\n          sload\n          dup2\n          0xffffffffffffffffffffffffffffffffffffffff\n          mul\n          not\n          and\n          swap1\n          dup4\n          0xffffffffffffffffffffffffffffffffffffffff\n          and\n          mul\n          or\n          swap1\n          sstore\n          pop\n            /* \"Campaign.sol\":1100:1107  minimum */\n          dup2\n            /* \"Campaign.sol\":1078:1097  minimumContribution */\n          0x01\n            /* \"Campaign.sol\":1078:1107  minimumContribution = minimum */\n          dup2\n          swap1\n          sstore\n          pop\n            /* \"Campaign.sol\":995:1114  constructor(uint256 minimum, address creator) {... */\n          pop\n          pop\n            /* \"Campaign.sol\":419:2283  contract Campaign {... */\n          jump(tag_6)\n            /* \"#utility.yul\":88:205   */\n        tag_8:\n            /* \"#utility.yul\":197:198   */\n          0x00\n            /* \"#utility.yul\":194:195   */\n          dup1\n            /* \"#utility.yul\":187:199   */\n          revert\n            /* \"#utility.yul\":334:411   */\n        tag_10:\n            /* \"#utility.yul\":371:378   */\n          0x00\n            /* \"#utility.yul\":400:405   */\n          dup2\n            /* \"#utility.yul\":389:405   */\n          swap1\n          pop\n            /* \"#utility.yul\":334:411   */\n          swap2\n          swap1\n          pop\n          jump\t// out\n            /* \"#utility.yul\":417:539   */\n        tag_11:\n            /* \"#utility.yul\":490:514   */\n          tag_23\n            /* \"#utility.yul\":508:513   */\n          dup2\n            /* \"#utility.yul\":490:514   */\n          tag_10\n          jump\t// in\n        tag_23:\n            /* \"#utility.yul\":483:488   */\n          dup2\n            /* \"#utility.yul\":480:515   */\n          eq\n            /* \"#utility.yul\":470:533   */\n          tag_24\n          jumpi\n            /* \"#utility.yul\":529:530   */\n          0x00\n            /* \"#utility.yul\":526:527   */\n          dup1\n            /* \"#utility.yul\":519:531   */\n          revert\n            /* \"#utility.yul\":470:533   */\n        tag_24:\n            /* \"#utility.yul\":417:539   */\n          pop\n          jump\t// out\n            /* \"#utility.yul\":545:688   */\n        tag_12:\n            /* \"#utility.yul\":602:607   */\n          0x00\n            /* \"#utility.yul\":633:639   */\n          dup2\n            /* \"#utility.yul\":627:640   */\n          mload\n            /* \"#utility.yul\":618:640   */\n          swap1\n          pop\n            /* \"#utility.yul\":649:682   */\n          tag_26\n            /* \"#utility.yul\":676:681   */\n          dup2\n            /* \"#utility.yul\":649:682   */\n          tag_11\n          jump\t// in\n        tag_26:\n            /* \"#utility.yul\":545:688   */\n          swap3\n          swap2\n          pop\n          pop\n          jump\t// out\n            /* \"#utility.yul\":694:820   */\n        tag_13:\n            /* \"#utility.yul\":731:738   */\n          0x00\n            /* \"#utility.yul\":771:813   */\n          0xffffffffffffffffffffffffffffffffffffffff\n            /* \"#utility.yul\":764:769   */\n          dup3\n            /* \"#utility.yul\":760:814   */\n          and\n            /* \"#utility.yul\":749:814   */\n          swap1\n          pop\n            /* \"#utility.yul\":694:820   */\n          swap2\n          swap1\n          pop\n          jump\t// out\n            /* \"#utility.yul\":826:922   */\n        tag_14:\n            /* \"#utility.yul\":863:870   */\n          0x00\n            /* \"#utility.yul\":892:916   */\n          tag_29\n            /* \"#utility.yul\":910:915   */\n          dup3\n            /* \"#utility.yul\":892:916   */\n          tag_13\n          jump\t// in\n        tag_29:\n            /* \"#utility.yul\":881:916   */\n          swap1\n          pop\n            /* \"#utility.yul\":826:922   */\n          swap2\n          swap1\n          pop\n          jump\t// out\n            /* \"#utility.yul\":928:1050   */\n        tag_15:\n            /* \"#utility.yul\":1001:1025   */\n          tag_31\n            /* \"#utility.yul\":1019:1024   */\n          dup2\n            /* \"#utility.yul\":1001:1025   */\n          tag_14\n          jump\t// in\n        tag_31:\n            /* \"#utility.yul\":994:999   */\n          dup2\n            /* \"#utility.yul\":991:1026   */\n          eq\n            /* \"#utility.yul\":981:1044   */\n          tag_32\n          jumpi\n            /* \"#utility.yul\":1040:1041   */\n          0x00\n            /* \"#utility.yul\":1037:1038   */\n          dup1\n            /* \"#utility.yul\":1030:1042   */\n          revert\n            /* \"#utility.yul\":981:1044   */\n        tag_32:\n            /* \"#utility.yul\":928:1050   */\n          pop\n          jump\t// out\n            /* \"#utility.yul\":1056:1199   */\n        tag_16:\n            /* \"#utility.yul\":1113:1118   */\n          0x00\n            /* \"#utility.yul\":1144:1150   */\n          dup2\n            /* \"#utility.yul\":1138:1151   */\n          mload\n            /* \"#utility.yul\":1129:1151   */\n          swap1\n          pop\n            /* \"#utility.yul\":1160:1193   */\n          tag_34\n            /* \"#utility.yul\":1187:1192   */\n          dup2\n            /* \"#utility.yul\":1160:1193   */\n          tag_15\n          jump\t// in\n        tag_34:\n            /* \"#utility.yul\":1056:1199   */\n          swap3\n          swap2\n          pop\n          pop\n          jump\t// out\n            /* \"#utility.yul\":1205:1712   */\n        tag_3:\n            /* \"#utility.yul\":1284:1290   */\n          0x00\n            /* \"#utility.yul\":1292:1298   */\n          dup1\n            /* \"#utility.yul\":1341:1343   */\n          0x40\n            /* \"#utility.yul\":1329:1338   */\n          dup4\n            /* \"#utility.yul\":1320:1327   */\n          dup6\n            /* \"#utility.yul\":1316:1339   */\n          sub\n            /* \"#utility.yul\":1312:1344   */\n          slt\n            /* \"#utility.yul\":1309:1428   */\n          iszero\n          tag_36\n          jumpi\n            /* \"#utility.yul\":1347:1426   */\n          tag_37\n          tag_8\n          jump\t// in\n        tag_37:\n            /* \"#utility.yul\":1309:1428   */\n        tag_36:\n            /* \"#utility.yul\":1467:1468   */\n          0x00\n            /* \"#utility.yul\":1492:1556   */\n          tag_38\n            /* \"#utility.yul\":1548:1555   */\n          dup6\n            /* \"#utility.yul\":1539:1545   */\n          dup3\n            /* \"#utility.yul\":1528:1537   */\n          dup7\n            /* \"#utility.yul\":1524:1546   */\n          add\n            /* \"#utility.yul\":1492:1556   */\n          tag_12\n          jump\t// in\n        tag_38:\n            /* \"#utility.yul\":1482:1556   */\n          swap3\n          pop\n            /* \"#utility.yul\":1438:1566   */\n          pop\n            /* \"#utility.yul\":1605:1607   */\n          0x20\n            /* \"#utility.yul\":1631:1695   */\n          tag_39\n            /* \"#utility.yul\":1687:1694   */\n          dup6\n            /* \"#utility.yul\":1678:1684   */\n          dup3\n            /* \"#utility.yul\":1667:1676   */\n          dup7\n            /* \"#utility.yul\":1663:1685   */\n          add\n            /* \"#utility.yul\":1631:1695   */\n          tag_16\n          jump\t// in\n        tag_39:\n            /* \"#utility.yul\":1621:1695   */\n          swap2\n          pop\n            /* \"#utility.yul\":1576:1705   */\n          pop\n            /* \"#utility.yul\":1205:1712   */\n          swap3\n          pop\n          swap3\n          swap1\n          pop\n          jump\t// out\n            /* \"Campaign.sol\":419:2283  contract Campaign {... */\n        tag_6:\n          dataSize(sub_0)\n          dup1\n          dataOffset(sub_0)\n          0x00\n          codecopy\n          0x00\n          return\n        stop\n\n        sub_0: assembly {\n                /* \"Campaign.sol\":419:2283  contract Campaign {... */\n              mstore(0x40, 0x80)\n              jumpi(tag_1, lt(calldatasize, 0x04))\n              shr(0xe0, calldataload(0x00))\n              dup1\n              0x8a9cfd55\n              gt\n              tag_10\n              jumpi\n              dup1\n              0x8a9cfd55\n              eq\n              tag_6\n              jumpi\n              dup1\n              0x937e09b1\n              eq\n              tag_7\n              jumpi\n              dup1\n              0xd7bb99ba\n              eq\n              tag_8\n              jumpi\n              dup1\n              0xd7d1bbdb\n              eq\n              tag_9\n              jumpi\n              jump(tag_1)\n            tag_10:\n              dup1\n              0x03441006\n              eq\n              tag_2\n              jumpi\n              dup1\n              0x0a144391\n              eq\n              tag_3\n              jumpi\n              dup1\n              0x481c6a75\n              eq\n              tag_4\n              jumpi\n              dup1\n              0x82fde093\n              eq\n              tag_5\n              jumpi\n            tag_1:\n              0x00\n              dup1\n              revert\n                /* \"Campaign.sol\":1971:2281  function finalizeRequest(uint256 index) public restrictedToManager {... */\n            tag_2:\n              callvalue\n              dup1\n              iszero\n              tag_11\n              jumpi\n              0x00\n              dup1\n              revert\n            tag_11:\n              pop\n              tag_12\n              0x04\n              dup1\n              calldatasize\n              sub\n              dup2\n              add\n              swap1\n              tag_13\n              swap2\n              swap1\n              tag_14\n              jump\t// in\n            tag_13:\n              tag_15\n              jump\t// in\n            tag_12:\n              stop\n                /* \"Campaign.sol\":812:853  mapping(address => bool) public approvers */\n            tag_3:\n              callvalue\n              dup1\n              iszero\n              tag_16\n              jumpi\n              0x00\n              dup1\n              revert\n            tag_16:\n              pop\n              tag_17\n              0x04\n              dup1\n              calldatasize\n              sub\n              dup2\n              add\n              swap1\n              tag_18\n              swap2\n              swap1\n              tag_19\n              jump\t// in\n            tag_18:\n              tag_20\n              jump\t// in\n            tag_17:\n              mload(0x40)\n              tag_21\n              swap2\n              swap1\n              tag_22\n              jump\t// in\n            tag_21:\n              mload(0x40)\n              dup1\n              swap2\n              sub\n              swap1\n              return\n                /* \"Campaign.sol\":682:704  address public manager */\n            tag_4:\n              callvalue\n              dup1\n              iszero\n              tag_23\n              jumpi\n              0x00\n              dup1\n              revert\n            tag_23:\n              pop\n              tag_24\n              tag_25\n              jump\t// in\n            tag_24:\n              mload(0x40)\n              tag_26\n              swap2\n              swap1\n              tag_27\n              jump\t// in\n            tag_26:\n              mload(0x40)\n              dup1\n              swap2\n              sub\n              swap1\n              return\n                /* \"Campaign.sol\":751:780  uint256 public approversCount */\n            tag_5:\n              callvalue\n              dup1\n              iszero\n              tag_28\n              jumpi\n              0x00\n              dup1\n              revert\n            tag_28:\n              pop\n              tag_29\n              tag_30\n              jump\t// in\n            tag_29:\n              mload(0x40)\n              tag_31\n              swap2\n              swap1\n              tag_32\n              jump\t// in\n            tag_31:\n              mload(0x40)\n              dup1\n              swap2\n              sub\n              swap1\n              return\n                /* \"Campaign.sol\":1284:1685  function createRequest(... */\n            tag_6:\n              callvalue\n              dup1\n              iszero\n              tag_33\n              jumpi\n              0x00\n              dup1\n              revert\n            tag_33:\n              pop\n              tag_34\n              0x04\n              dup1\n              calldatasize\n              sub\n              dup2\n              add\n              swap1\n              tag_35\n              swap2\n              swap1\n              tag_36\n              jump\t// in\n            tag_35:\n              tag_37\n              jump\t// in\n            tag_34:\n              stop\n                /* \"Campaign.sol\":711:745  uint256 public minimumContribution */\n            tag_7:\n              callvalue\n              dup1\n              iszero\n              tag_38\n              jumpi\n              0x00\n              dup1\n              revert\n            tag_38:\n              pop\n              tag_39\n              tag_40\n              jump\t// in\n            tag_39:\n              mload(0x40)\n              tag_41\n              swap2\n              swap1\n              tag_32\n              jump\t// in\n            tag_41:\n              mload(0x40)\n              dup1\n              swap2\n              sub\n              swap1\n              return\n                /* \"Campaign.sol\":1120:1278  function contribute() public payable {... */\n            tag_8:\n              tag_42\n              tag_43\n              jump\t// in\n            tag_42:\n              stop\n                /* \"Campaign.sol\":1691:1965  function approveRequest(uint256 index) public {... */\n            tag_9:\n              callvalue\n              dup1\n              iszero\n              tag_44\n              jumpi\n              0x00\n              dup1\n              revert\n            tag_44:\n              pop\n              tag_45\n              0x04\n              dup1\n              calldatasize\n              sub\n              dup2\n              add\n              swap1\n              tag_46\n              swap2\n              swap1\n              tag_14\n              jump\t// in\n            tag_46:\n              tag_47\n              jump\t// in\n            tag_45:\n              stop\n                /* \"Campaign.sol\":1971:2281  function finalizeRequest(uint256 index) public restrictedToManager {... */\n            tag_15:\n                /* \"Campaign.sol\":963:970  manager */\n              0x00\n              dup1\n              sload\n              swap1\n              0x0100\n              exp\n              swap1\n              div\n              0xffffffffffffffffffffffffffffffffffffffff\n              and\n                /* \"Campaign.sol\":949:970  msg.sender == manager */\n              0xffffffffffffffffffffffffffffffffffffffff\n              and\n                /* \"Campaign.sol\":949:959  msg.sender */\n              caller\n                /* \"Campaign.sol\":949:970  msg.sender == manager */\n              0xffffffffffffffffffffffffffffffffffffffff\n              and\n              eq\n                /* \"Campaign.sol\":941:971  require(msg.sender == manager) */\n              tag_49\n              jumpi\n              0x00\n              dup1\n              revert\n            tag_49:\n                /* \"Campaign.sol\":2048:2071  Request storage request */\n              0x00\n                /* \"Campaign.sol\":2074:2082  requests */\n              0x05\n                /* \"Campaign.sol\":2074:2089  requests[index] */\n              0x00\n                /* \"Campaign.sol\":2083:2088  index */\n              dup4\n                /* \"Campaign.sol\":2074:2089  requests[index] */\n              dup2\n              mstore\n              0x20\n              add\n              swap1\n              dup2\n              mstore\n              0x20\n              add\n              0x00\n              keccak256\n                /* \"Campaign.sol\":2048:2089  Request storage request = requests[index] */\n              swap1\n              pop\n                /* \"Campaign.sol\":2150:2151  2 */\n              0x02\n                /* \"Campaign.sol\":2133:2147  approversCount */\n              dup1\n              sload\n                /* \"Campaign.sol\":2133:2151  approversCount / 2 */\n              tag_51\n              swap2\n              swap1\n              tag_52\n              jump\t// in\n            tag_51:\n                /* \"Campaign.sol\":2108:2115  request */\n              dup2\n                /* \"Campaign.sol\":2108:2129  request.approvalCount */\n              0x03\n              add\n              sload\n                /* \"Campaign.sol\":2108:2152  request.approvalCount > (approversCount / 2) */\n              gt\n                /* \"Campaign.sol\":2100:2153  require(request.approvalCount > (approversCount / 2)) */\n              tag_53\n              jumpi\n              0x00\n              dup1\n              revert\n            tag_53:\n                /* \"Campaign.sol\":2172:2179  request */\n              dup1\n                /* \"Campaign.sol\":2172:2188  request.complete */\n              0x02\n              add\n              0x14\n              swap1\n              sload\n              swap1\n              0x0100\n              exp\n              swap1\n              div\n              0xff\n              and\n                /* \"Campaign.sol\":2171:2188  !request.complete */\n              iszero\n                /* \"Campaign.sol\":2163:2189  require(!request.complete) */\n              tag_54\n              jumpi\n              0x00\n              dup1\n              revert\n            tag_54:\n                /* \"Campaign.sol\":2200:2207  request */\n              dup1\n                /* \"Campaign.sol\":2200:2217  request.recipient */\n              0x02\n              add\n              0x00\n              swap1\n              sload\n              swap1\n              0x0100\n              exp\n              swap1\n              div\n              0xffffffffffffffffffffffffffffffffffffffff\n              and\n                /* \"Campaign.sol\":2200:2226  request.recipient.transfer */\n              0xffffffffffffffffffffffffffffffffffffffff\n              and\n                /* \"Campaign.sol\":2200:2241  request.recipient.transfer(request.value) */\n              0x08fc\n                /* \"Campaign.sol\":2227:2234  request */\n              dup3\n                /* \"Campaign.sol\":2227:2240  request.value */\n              0x01\n              add\n              sload\n                /* \"Campaign.sol\":2200:2241  request.recipient.transfer(request.value) */\n              swap1\n              dup2\n              iszero\n              mul\n              swap1\n              mload(0x40)\n              0x00\n              mload(0x40)\n              dup1\n              dup4\n              sub\n              dup2\n              dup6\n              dup9\n              dup9\n              call\n              swap4\n              pop\n              pop\n              pop\n              pop\n              iszero\n              dup1\n              iszero\n              tag_56\n              jumpi\n              returndatasize\n              0x00\n              dup1\n              returndatacopy\n              revert(0x00, returndatasize)\n            tag_56:\n              pop\n                /* \"Campaign.sol\":2270:2274  true */\n              0x01\n                /* \"Campaign.sol\":2251:2258  request */\n              dup2\n                /* \"Campaign.sol\":2251:2267  request.complete */\n              0x02\n              add\n              0x14\n                /* \"Campaign.sol\":2251:2274  request.complete = true */\n              0x0100\n              exp\n              dup2\n              sload\n              dup2\n              0xff\n              mul\n              not\n              and\n              swap1\n              dup4\n              iszero\n              iszero\n              mul\n              or\n              swap1\n              sstore\n              pop\n                /* \"Campaign.sol\":2038:2281  {... */\n              pop\n                /* \"Campaign.sol\":1971:2281  function finalizeRequest(uint256 index) public restrictedToManager {... */\n              pop\n              jump\t// out\n                /* \"Campaign.sol\":812:853  mapping(address => bool) public approvers */\n            tag_20:\n              mstore(0x20, 0x04)\n              dup1\n              0x00\n              mstore\n              keccak256(0x00, 0x40)\n              0x00\n              swap2\n              pop\n              sload\n              swap1\n              0x0100\n              exp\n              swap1\n              div\n              0xff\n              and\n              dup2\n              jump\t// out\n                /* \"Campaign.sol\":682:704  address public manager */\n            tag_25:\n              0x00\n              dup1\n              sload\n              swap1\n              0x0100\n              exp\n              swap1\n              div\n              0xffffffffffffffffffffffffffffffffffffffff\n              and\n              dup2\n              jump\t// out\n                /* \"Campaign.sol\":751:780  uint256 public approversCount */\n            tag_30:\n              sload(0x02)\n              dup2\n              jump\t// out\n                /* \"Campaign.sol\":1284:1685  function createRequest(... */\n            tag_37:\n                /* \"Campaign.sol\":963:970  manager */\n              0x00\n              dup1\n              sload\n              swap1\n              0x0100\n              exp\n              swap1\n              div\n              0xffffffffffffffffffffffffffffffffffffffff\n              and\n                /* \"Campaign.sol\":949:970  msg.sender == manager */\n              0xffffffffffffffffffffffffffffffffffffffff\n              and\n                /* \"Campaign.sol\":949:959  msg.sender */\n              caller\n                /* \"Campaign.sol\":949:970  msg.sender == manager */\n              0xffffffffffffffffffffffffffffffffffffffff\n              and\n              eq\n                /* \"Campaign.sol\":941:971  require(msg.sender == manager) */\n              tag_58\n              jumpi\n              0x00\n              dup1\n              revert\n            tag_58:\n                /* \"Campaign.sol\":1445:1471  Request storage newRequest */\n              0x00\n                /* \"Campaign.sol\":1474:1482  requests */\n              0x05\n                /* \"Campaign.sol\":1474:1495  requests[numRequests] */\n              0x00\n                /* \"Campaign.sol\":1483:1494  numRequests */\n              sload(0x03)\n                /* \"Campaign.sol\":1474:1495  requests[numRequests] */\n              dup2\n              mstore\n              0x20\n              add\n              swap1\n              dup2\n              mstore\n              0x20\n              add\n              0x00\n              keccak256\n                /* \"Campaign.sol\":1445:1495  Request storage newRequest = requests[numRequests] */\n              swap1\n              pop\n                /* \"Campaign.sol\":1505:1516  numRequests */\n              0x03\n              0x00\n                /* \"Campaign.sol\":1505:1518  numRequests++ */\n              dup2\n              sload\n              dup1\n              swap3\n              swap2\n              swap1\n              tag_60\n              swap1\n              tag_61\n              jump\t// in\n            tag_60:\n              swap2\n              swap1\n              pop\n              sstore\n              pop\n                /* \"Campaign.sol\":1553:1564  description */\n              dup5\n              dup5\n                /* \"Campaign.sol\":1528:1538  newRequest */\n              dup3\n                /* \"Campaign.sol\":1528:1550  newRequest.description */\n              0x00\n              add\n                /* \"Campaign.sol\":1528:1564  newRequest.description = description */\n              swap2\n              swap1\n              tag_62\n              swap3\n              swap2\n              swap1\n              tag_63\n              jump\t// in\n            tag_62:\n              pop\n                /* \"Campaign.sol\":1593:1598  value */\n              dup3\n                /* \"Campaign.sol\":1574:1584  newRequest */\n              dup2\n                /* \"Campaign.sol\":1574:1590  newRequest.value */\n              0x01\n              add\n                /* \"Campaign.sol\":1574:1598  newRequest.value = value */\n              dup2\n              swap1\n              sstore\n              pop\n                /* \"Campaign.sol\":1631:1640  recipient */\n              dup2\n                /* \"Campaign.sol\":1608:1618  newRequest */\n              dup2\n                /* \"Campaign.sol\":1608:1628  newRequest.recipient */\n              0x02\n              add\n              0x00\n                /* \"Campaign.sol\":1608:1640  newRequest.recipient = recipient */\n              0x0100\n              exp\n              dup2\n              sload\n              dup2\n              0xffffffffffffffffffffffffffffffffffffffff\n              mul\n              not\n              and\n              swap1\n              dup4\n              0xffffffffffffffffffffffffffffffffffffffff\n              and\n              mul\n              or\n              swap1\n              sstore\n              pop\n                /* \"Campaign.sol\":1677:1678  0 */\n              0x00\n                /* \"Campaign.sol\":1650:1660  newRequest */\n              dup2\n                /* \"Campaign.sol\":1650:1674  newRequest.approvalCount */\n              0x03\n              add\n                /* \"Campaign.sol\":1650:1678  newRequest.approvalCount = 0 */\n              dup2\n              swap1\n              sstore\n              pop\n                /* \"Campaign.sol\":1435:1685  {... */\n              pop\n                /* \"Campaign.sol\":1284:1685  function createRequest(... */\n              pop\n              pop\n              pop\n              pop\n              jump\t// out\n                /* \"Campaign.sol\":711:745  uint256 public minimumContribution */\n            tag_40:\n              sload(0x01)\n              dup2\n              jump\t// out\n                /* \"Campaign.sol\":1120:1278  function contribute() public payable {... */\n            tag_43:\n                /* \"Campaign.sol\":1187:1206  minimumContribution */\n              sload(0x01)\n                /* \"Campaign.sol\":1175:1184  msg.value */\n              callvalue\n                /* \"Campaign.sol\":1175:1206  msg.value > minimumContribution */\n              gt\n                /* \"Campaign.sol\":1167:1207  require(msg.value > minimumContribution) */\n              tag_65\n              jumpi\n              0x00\n              dup1\n              revert\n            tag_65:\n                /* \"Campaign.sol\":1241:1245  true */\n              0x01\n                /* \"Campaign.sol\":1217:1226  approvers */\n              0x04\n                /* \"Campaign.sol\":1217:1238  approvers[msg.sender] */\n              0x00\n                /* \"Campaign.sol\":1227:1237  msg.sender */\n              caller\n                /* \"Campaign.sol\":1217:1238  approvers[msg.sender] */\n              0xffffffffffffffffffffffffffffffffffffffff\n              and\n              0xffffffffffffffffffffffffffffffffffffffff\n              and\n              dup2\n              mstore\n              0x20\n              add\n              swap1\n              dup2\n              mstore\n              0x20\n              add\n              0x00\n              keccak256\n              0x00\n                /* \"Campaign.sol\":1217:1245  approvers[msg.sender] = true */\n              0x0100\n              exp\n              dup2\n              sload\n              dup2\n              0xff\n              mul\n              not\n              and\n              swap1\n              dup4\n              iszero\n              iszero\n              mul\n              or\n              swap1\n              sstore\n              pop\n                /* \"Campaign.sol\":1255:1269  approversCount */\n              0x02\n              0x00\n                /* \"Campaign.sol\":1255:1271  approversCount++ */\n              dup2\n              sload\n              dup1\n              swap3\n              swap2\n              swap1\n              tag_66\n              swap1\n              tag_61\n              jump\t// in\n            tag_66:\n              swap2\n              swap1\n              pop\n              sstore\n              pop\n                /* \"Campaign.sol\":1120:1278  function contribute() public payable {... */\n              jump\t// out\n                /* \"Campaign.sol\":1691:1965  function approveRequest(uint256 index) public {... */\n            tag_47:\n                /* \"Campaign.sol\":1747:1770  Request storage request */\n              0x00\n                /* \"Campaign.sol\":1773:1781  requests */\n              0x05\n                /* \"Campaign.sol\":1773:1788  requests[index] */\n              0x00\n                /* \"Campaign.sol\":1782:1787  index */\n              dup4\n                /* \"Campaign.sol\":1773:1788  requests[index] */\n              dup2\n              mstore\n              0x20\n              add\n              swap1\n              dup2\n              mstore\n              0x20\n              add\n              0x00\n              keccak256\n                /* \"Campaign.sol\":1747:1788  Request storage request = requests[index] */\n              swap1\n              pop\n                /* \"Campaign.sol\":1807:1816  approvers */\n              0x04\n                /* \"Campaign.sol\":1807:1828  approvers[msg.sender] */\n              0x00\n                /* \"Campaign.sol\":1817:1827  msg.sender */\n              caller\n                /* \"Campaign.sol\":1807:1828  approvers[msg.sender] */\n              0xffffffffffffffffffffffffffffffffffffffff\n              and\n              0xffffffffffffffffffffffffffffffffffffffff\n              and\n              dup2\n              mstore\n              0x20\n              add\n              swap1\n              dup2\n              mstore\n              0x20\n              add\n              0x00\n              keccak256\n              0x00\n              swap1\n              sload\n              swap1\n              0x0100\n              exp\n              swap1\n              div\n              0xff\n              and\n                /* \"Campaign.sol\":1799:1829  require(approvers[msg.sender]) */\n              tag_68\n              jumpi\n              0x00\n              dup1\n              revert\n            tag_68:\n                /* \"Campaign.sol\":1848:1855  request */\n              dup1\n                /* \"Campaign.sol\":1848:1865  request.approvals */\n              0x04\n              add\n                /* \"Campaign.sol\":1848:1877  request.approvals[msg.sender] */\n              0x00\n                /* \"Campaign.sol\":1866:1876  msg.sender */\n              caller\n                /* \"Campaign.sol\":1848:1877  request.approvals[msg.sender] */\n              0xffffffffffffffffffffffffffffffffffffffff\n              and\n              0xffffffffffffffffffffffffffffffffffffffff\n              and\n              dup2\n              mstore\n              0x20\n              add\n              swap1\n              dup2\n              mstore\n              0x20\n              add\n              0x00\n              keccak256\n              0x00\n              swap1\n              sload\n              swap1\n              0x0100\n              exp\n              swap1\n              div\n              0xff\n              and\n                /* \"Campaign.sol\":1847:1877  !request.approvals[msg.sender] */\n              iszero\n                /* \"Campaign.sol\":1839:1878  require(!request.approvals[msg.sender]) */\n              tag_69\n              jumpi\n              0x00\n              dup1\n              revert\n            tag_69:\n                /* \"Campaign.sol\":1921:1925  true */\n              0x01\n                /* \"Campaign.sol\":1889:1896  request */\n              dup2\n                /* \"Campaign.sol\":1889:1906  request.approvals */\n              0x04\n              add\n                /* \"Campaign.sol\":1889:1918  request.approvals[msg.sender] */\n              0x00\n                /* \"Campaign.sol\":1907:1917  msg.sender */\n              caller\n                /* \"Campaign.sol\":1889:1918  request.approvals[msg.sender] */\n              0xffffffffffffffffffffffffffffffffffffffff\n              and\n              0xffffffffffffffffffffffffffffffffffffffff\n              and\n              dup2\n              mstore\n              0x20\n              add\n              swap1\n              dup2\n              mstore\n              0x20\n              add\n              0x00\n              keccak256\n              0x00\n                /* \"Campaign.sol\":1889:1925  request.approvals[msg.sender] = true */\n              0x0100\n              exp\n              dup2\n              sload\n              dup2\n              0xff\n              mul\n              not\n              and\n              swap1\n              dup4\n              iszero\n              iszero\n              mul\n              or\n              swap1\n              sstore\n              pop\n                /* \"Campaign.sol\":1935:1942  request */\n              dup1\n                /* \"Campaign.sol\":1935:1956  request.approvalCount */\n              0x03\n              add\n              0x00\n                /* \"Campaign.sol\":1935:1958  request.approvalCount++ */\n              dup2\n              sload\n              dup1\n              swap3\n              swap2\n              swap1\n              tag_70\n              swap1\n              tag_61\n              jump\t// in\n            tag_70:\n              swap2\n              swap1\n              pop\n              sstore\n              pop\n                /* \"Campaign.sol\":1737:1965  {... */\n              pop\n                /* \"Campaign.sol\":1691:1965  function approveRequest(uint256 index) public {... */\n              pop\n              jump\t// out\n            tag_63:\n              dup3\n              dup1\n              sload\n              tag_71\n              swap1\n              tag_72\n              jump\t// in\n            tag_71:\n              swap1\n              0x00\n              mstore\n              keccak256(0x00, 0x20)\n              swap1\n              0x1f\n              add\n              0x20\n              swap1\n              div\n              dup2\n              add\n              swap3\n              dup3\n              tag_74\n              jumpi\n              0x00\n              dup6\n              sstore\n              jump(tag_73)\n            tag_74:\n              dup3\n              0x1f\n              lt\n              tag_75\n              jumpi\n              dup1\n              calldataload\n              not(0xff)\n              and\n              dup4\n              dup1\n              add\n              or\n              dup6\n              sstore\n              jump(tag_73)\n            tag_75:\n              dup3\n              dup1\n              add\n              0x01\n              add\n              dup6\n              sstore\n              dup3\n              iszero\n              tag_73\n              jumpi\n              swap2\n              dup3\n              add\n            tag_76:\n              dup3\n              dup2\n              gt\n              iszero\n              tag_77\n              jumpi\n              dup3\n              calldataload\n              dup3\n              sstore\n              swap2\n              0x20\n              add\n              swap2\n              swap1\n              0x01\n              add\n              swap1\n              jump(tag_76)\n            tag_77:\n            tag_73:\n              pop\n              swap1\n              pop\n              tag_78\n              swap2\n              swap1\n              tag_79\n              jump\t// in\n            tag_78:\n              pop\n              swap1\n              jump\t// out\n            tag_79:\n            tag_80:\n              dup1\n              dup3\n              gt\n              iszero\n              tag_81\n              jumpi\n              0x00\n              dup2\n              0x00\n              swap1\n              sstore\n              pop\n              0x01\n              add\n              jump(tag_80)\n            tag_81:\n              pop\n              swap1\n              jump\t// out\n                /* \"#utility.yul\":88:205   */\n            tag_83:\n                /* \"#utility.yul\":197:198   */\n              0x00\n                /* \"#utility.yul\":194:195   */\n              dup1\n                /* \"#utility.yul\":187:199   */\n              revert\n                /* \"#utility.yul\":211:328   */\n            tag_84:\n                /* \"#utility.yul\":320:321   */\n              0x00\n                /* \"#utility.yul\":317:318   */\n              dup1\n                /* \"#utility.yul\":310:322   */\n              revert\n                /* \"#utility.yul\":334:411   */\n            tag_85:\n                /* \"#utility.yul\":371:378   */\n              0x00\n                /* \"#utility.yul\":400:405   */\n              dup2\n                /* \"#utility.yul\":389:405   */\n              swap1\n              pop\n                /* \"#utility.yul\":334:411   */\n              swap2\n              swap1\n              pop\n              jump\t// out\n                /* \"#utility.yul\":417:539   */\n            tag_86:\n                /* \"#utility.yul\":490:514   */\n              tag_112\n                /* \"#utility.yul\":508:513   */\n              dup2\n                /* \"#utility.yul\":490:514   */\n              tag_85\n              jump\t// in\n            tag_112:\n                /* \"#utility.yul\":483:488   */\n              dup2\n                /* \"#utility.yul\":480:515   */\n              eq\n                /* \"#utility.yul\":470:533   */\n              tag_113\n              jumpi\n                /* \"#utility.yul\":529:530   */\n              0x00\n                /* \"#utility.yul\":526:527   */\n              dup1\n                /* \"#utility.yul\":519:531   */\n              revert\n                /* \"#utility.yul\":470:533   */\n            tag_113:\n                /* \"#utility.yul\":417:539   */\n              pop\n              jump\t// out\n                /* \"#utility.yul\":545:684   */\n            tag_87:\n                /* \"#utility.yul\":591:596   */\n              0x00\n                /* \"#utility.yul\":629:635   */\n              dup2\n                /* \"#utility.yul\":616:636   */\n              calldataload\n                /* \"#utility.yul\":607:636   */\n              swap1\n              pop\n                /* \"#utility.yul\":645:678   */\n              tag_115\n                /* \"#utility.yul\":672:677   */\n              dup2\n                /* \"#utility.yul\":645:678   */\n              tag_86\n              jump\t// in\n            tag_115:\n                /* \"#utility.yul\":545:684   */\n              swap3\n              swap2\n              pop\n              pop\n              jump\t// out\n                /* \"#utility.yul\":690:1019   */\n            tag_14:\n                /* \"#utility.yul\":749:755   */\n              0x00\n                /* \"#utility.yul\":798:800   */\n              0x20\n                /* \"#utility.yul\":786:795   */\n              dup3\n                /* \"#utility.yul\":777:784   */\n              dup5\n                /* \"#utility.yul\":773:796   */\n              sub\n                /* \"#utility.yul\":769:801   */\n              slt\n                /* \"#utility.yul\":766:885   */\n              iszero\n              tag_117\n              jumpi\n                /* \"#utility.yul\":804:883   */\n              tag_118\n              tag_83\n              jump\t// in\n            tag_118:\n                /* \"#utility.yul\":766:885   */\n            tag_117:\n                /* \"#utility.yul\":924:925   */\n              0x00\n                /* \"#utility.yul\":949:1002   */\n              tag_119\n                /* \"#utility.yul\":994:1001   */\n              dup5\n                /* \"#utility.yul\":985:991   */\n              dup3\n                /* \"#utility.yul\":974:983   */\n              dup6\n                /* \"#utility.yul\":970:992   */\n              add\n                /* \"#utility.yul\":949:1002   */\n              tag_87\n              jump\t// in\n            tag_119:\n                /* \"#utility.yul\":939:1002   */\n              swap2\n              pop\n                /* \"#utility.yul\":895:1012   */\n              pop\n                /* \"#utility.yul\":690:1019   */\n              swap3\n              swap2\n              pop\n              pop\n              jump\t// out\n                /* \"#utility.yul\":1025:1151   */\n            tag_88:\n                /* \"#utility.yul\":1062:1069   */\n              0x00\n                /* \"#utility.yul\":1102:1144   */\n              0xffffffffffffffffffffffffffffffffffffffff\n                /* \"#utility.yul\":1095:1100   */\n              dup3\n                /* \"#utility.yul\":1091:1145   */\n              and\n                /* \"#utility.yul\":1080:1145   */\n              swap1\n              pop\n                /* \"#utility.yul\":1025:1151   */\n              swap2\n              swap1\n              pop\n              jump\t// out\n                /* \"#utility.yul\":1157:1253   */\n            tag_89:\n                /* \"#utility.yul\":1194:1201   */\n              0x00\n                /* \"#utility.yul\":1223:1247   */\n              tag_122\n                /* \"#utility.yul\":1241:1246   */\n              dup3\n                /* \"#utility.yul\":1223:1247   */\n              tag_88\n              jump\t// in\n            tag_122:\n                /* \"#utility.yul\":1212:1247   */\n              swap1\n              pop\n                /* \"#utility.yul\":1157:1253   */\n              swap2\n              swap1\n              pop\n              jump\t// out\n                /* \"#utility.yul\":1259:1381   */\n            tag_90:\n                /* \"#utility.yul\":1332:1356   */\n              tag_124\n                /* \"#utility.yul\":1350:1355   */\n              dup2\n                /* \"#utility.yul\":1332:1356   */\n              tag_89\n              jump\t// in\n            tag_124:\n                /* \"#utility.yul\":1325:1330   */\n              dup2\n                /* \"#utility.yul\":1322:1357   */\n              eq\n                /* \"#utility.yul\":1312:1375   */\n              tag_125\n              jumpi\n                /* \"#utility.yul\":1371:1372   */\n              0x00\n                /* \"#utility.yul\":1368:1369   */\n              dup1\n                /* \"#utility.yul\":1361:1373   */\n              revert\n                /* \"#utility.yul\":1312:1375   */\n            tag_125:\n                /* \"#utility.yul\":1259:1381   */\n              pop\n              jump\t// out\n                /* \"#utility.yul\":1387:1526   */\n            tag_91:\n                /* \"#utility.yul\":1433:1438   */\n              0x00\n                /* \"#utility.yul\":1471:1477   */\n              dup2\n                /* \"#utility.yul\":1458:1478   */\n              calldataload\n                /* \"#utility.yul\":1449:1478   */\n              swap1\n              pop\n                /* \"#utility.yul\":1487:1520   */\n              tag_127\n                /* \"#utility.yul\":1514:1519   */\n              dup2\n                /* \"#utility.yul\":1487:1520   */\n              tag_90\n              jump\t// in\n            tag_127:\n                /* \"#utility.yul\":1387:1526   */\n              swap3\n              swap2\n              pop\n              pop\n              jump\t// out\n                /* \"#utility.yul\":1532:1861   */\n            tag_19:\n                /* \"#utility.yul\":1591:1597   */\n              0x00\n                /* \"#utility.yul\":1640:1642   */\n              0x20\n                /* \"#utility.yul\":1628:1637   */\n              dup3\n                /* \"#utility.yul\":1619:1626   */\n              dup5\n                /* \"#utility.yul\":1615:1638   */\n              sub\n                /* \"#utility.yul\":1611:1643   */\n              slt\n                /* \"#utility.yul\":1608:1727   */\n              iszero\n              tag_129\n              jumpi\n                /* \"#utility.yul\":1646:1725   */\n              tag_130\n              tag_83\n              jump\t// in\n            tag_130:\n                /* \"#utility.yul\":1608:1727   */\n            tag_129:\n                /* \"#utility.yul\":1766:1767   */\n              0x00\n                /* \"#utility.yul\":1791:1844   */\n              tag_131\n                /* \"#utility.yul\":1836:1843   */\n              dup5\n                /* \"#utility.yul\":1827:1833   */\n              dup3\n                /* \"#utility.yul\":1816:1825   */\n              dup6\n                /* \"#utility.yul\":1812:1834   */\n              add\n                /* \"#utility.yul\":1791:1844   */\n              tag_91\n              jump\t// in\n            tag_131:\n                /* \"#utility.yul\":1781:1844   */\n              swap2\n              pop\n                /* \"#utility.yul\":1737:1854   */\n              pop\n                /* \"#utility.yul\":1532:1861   */\n              swap3\n              swap2\n              pop\n              pop\n              jump\t// out\n                /* \"#utility.yul\":1867:1957   */\n            tag_92:\n                /* \"#utility.yul\":1901:1908   */\n              0x00\n                /* \"#utility.yul\":1944:1949   */\n              dup2\n                /* \"#utility.yul\":1937:1950   */\n              iszero\n                /* \"#utility.yul\":1930:1951   */\n              iszero\n                /* \"#utility.yul\":1919:1951   */\n              swap1\n              pop\n                /* \"#utility.yul\":1867:1957   */\n              swap2\n              swap1\n              pop\n              jump\t// out\n                /* \"#utility.yul\":1963:2072   */\n            tag_93:\n                /* \"#utility.yul\":2044:2065   */\n              tag_134\n                /* \"#utility.yul\":2059:2064   */\n              dup2\n                /* \"#utility.yul\":2044:2065   */\n              tag_92\n              jump\t// in\n            tag_134:\n                /* \"#utility.yul\":2039:2042   */\n              dup3\n                /* \"#utility.yul\":2032:2066   */\n              mstore\n                /* \"#utility.yul\":1963:2072   */\n              pop\n              pop\n              jump\t// out\n                /* \"#utility.yul\":2078:2288   */\n            tag_22:\n                /* \"#utility.yul\":2165:2169   */\n              0x00\n                /* \"#utility.yul\":2203:2205   */\n              0x20\n                /* \"#utility.yul\":2192:2201   */\n              dup3\n                /* \"#utility.yul\":2188:2206   */\n              add\n                /* \"#utility.yul\":2180:2206   */\n              swap1\n              pop\n                /* \"#utility.yul\":2216:2281   */\n              tag_136\n                /* \"#utility.yul\":2278:2279   */\n              0x00\n                /* \"#utility.yul\":2267:2276   */\n              dup4\n                /* \"#utility.yul\":2263:2280   */\n              add\n                /* \"#utility.yul\":2254:2260   */\n              dup5\n                /* \"#utility.yul\":2216:2281   */\n              tag_93\n              jump\t// in\n            tag_136:\n                /* \"#utility.yul\":2078:2288   */\n              swap3\n              swap2\n              pop\n              pop\n              jump\t// out\n                /* \"#utility.yul\":2294:2412   */\n            tag_94:\n                /* \"#utility.yul\":2381:2405   */\n              tag_138\n                /* \"#utility.yul\":2399:2404   */\n              dup2\n                /* \"#utility.yul\":2381:2405   */\n              tag_89\n              jump\t// in\n            tag_138:\n                /* \"#utility.yul\":2376:2379   */\n              dup3\n                /* \"#utility.yul\":2369:2406   */\n              mstore\n                /* \"#utility.yul\":2294:2412   */\n              pop\n              pop\n              jump\t// out\n                /* \"#utility.yul\":2418:2640   */\n            tag_27:\n                /* \"#utility.yul\":2511:2515   */\n              0x00\n                /* \"#utility.yul\":2549:2551   */\n              0x20\n                /* \"#utility.yul\":2538:2547   */\n              dup3\n                /* \"#utility.yul\":2534:2552   */\n              add\n                /* \"#utility.yul\":2526:2552   */\n              swap1\n              pop\n                /* \"#utility.yul\":2562:2633   */\n              tag_140\n                /* \"#utility.yul\":2630:2631   */\n              0x00\n                /* \"#utility.yul\":2619:2628   */\n              dup4\n                /* \"#utility.yul\":2615:2632   */\n              add\n                /* \"#utility.yul\":2606:2612   */\n              dup5\n                /* \"#utility.yul\":2562:2633   */\n              tag_94\n              jump\t// in\n            tag_140:\n                /* \"#utility.yul\":2418:2640   */\n              swap3\n              swap2\n              pop\n              pop\n              jump\t// out\n                /* \"#utility.yul\":2646:2764   */\n            tag_95:\n                /* \"#utility.yul\":2733:2757   */\n              tag_142\n                /* \"#utility.yul\":2751:2756   */\n              dup2\n                /* \"#utility.yul\":2733:2757   */\n              tag_85\n              jump\t// in\n            tag_142:\n                /* \"#utility.yul\":2728:2731   */\n              dup3\n                /* \"#utility.yul\":2721:2758   */\n              mstore\n                /* \"#utility.yul\":2646:2764   */\n              pop\n              pop\n              jump\t// out\n                /* \"#utility.yul\":2770:2992   */\n            tag_32:\n                /* \"#utility.yul\":2863:2867   */\n              0x00\n                /* \"#utility.yul\":2901:2903   */\n              0x20\n                /* \"#utility.yul\":2890:2899   */\n              dup3\n                /* \"#utility.yul\":2886:2904   */\n              add\n                /* \"#utility.yul\":2878:2904   */\n              swap1\n              pop\n                /* \"#utility.yul\":2914:2985   */\n              tag_144\n                /* \"#utility.yul\":2982:2983   */\n              0x00\n                /* \"#utility.yul\":2971:2980   */\n              dup4\n                /* \"#utility.yul\":2967:2984   */\n              add\n                /* \"#utility.yul\":2958:2964   */\n              dup5\n                /* \"#utility.yul\":2914:2985   */\n              tag_95\n              jump\t// in\n            tag_144:\n                /* \"#utility.yul\":2770:2992   */\n              swap3\n              swap2\n              pop\n              pop\n              jump\t// out\n                /* \"#utility.yul\":2998:3115   */\n            tag_96:\n                /* \"#utility.yul\":3107:3108   */\n              0x00\n                /* \"#utility.yul\":3104:3105   */\n              dup1\n                /* \"#utility.yul\":3097:3109   */\n              revert\n                /* \"#utility.yul\":3121:3238   */\n            tag_97:\n                /* \"#utility.yul\":3230:3231   */\n              0x00\n                /* \"#utility.yul\":3227:3228   */\n              dup1\n                /* \"#utility.yul\":3220:3232   */\n              revert\n                /* \"#utility.yul\":3244:3361   */\n            tag_98:\n                /* \"#utility.yul\":3353:3354   */\n              0x00\n                /* \"#utility.yul\":3350:3351   */\n              dup1\n                /* \"#utility.yul\":3343:3355   */\n              revert\n                /* \"#utility.yul\":3381:3934   */\n            tag_99:\n                /* \"#utility.yul\":3439:3447   */\n              0x00\n                /* \"#utility.yul\":3449:3455   */\n              dup1\n                /* \"#utility.yul\":3499:3502   */\n              dup4\n                /* \"#utility.yul\":3492:3496   */\n              0x1f\n                /* \"#utility.yul\":3484:3490   */\n              dup5\n                /* \"#utility.yul\":3480:3497   */\n              add\n                /* \"#utility.yul\":3476:3503   */\n              slt\n                /* \"#utility.yul\":3466:3588   */\n              tag_149\n              jumpi\n                /* \"#utility.yul\":3507:3586   */\n              tag_150\n              tag_96\n              jump\t// in\n            tag_150:\n                /* \"#utility.yul\":3466:3588   */\n            tag_149:\n                /* \"#utility.yul\":3620:3626   */\n              dup3\n                /* \"#utility.yul\":3607:3627   */\n              calldataload\n                /* \"#utility.yul\":3597:3627   */\n              swap1\n              pop\n                /* \"#utility.yul\":3650:3668   */\n              0xffffffffffffffff\n                /* \"#utility.yul\":3642:3648   */\n              dup2\n                /* \"#utility.yul\":3639:3669   */\n              gt\n                /* \"#utility.yul\":3636:3753   */\n              iszero\n              tag_151\n              jumpi\n                /* \"#utility.yul\":3672:3751   */\n              tag_152\n              tag_97\n              jump\t// in\n            tag_152:\n                /* \"#utility.yul\":3636:3753   */\n            tag_151:\n                /* \"#utility.yul\":3786:3790   */\n              0x20\n                /* \"#utility.yul\":3778:3784   */\n              dup4\n                /* \"#utility.yul\":3774:3791   */\n              add\n                /* \"#utility.yul\":3762:3791   */\n              swap2\n              pop\n                /* \"#utility.yul\":3840:3843   */\n              dup4\n                /* \"#utility.yul\":3832:3836   */\n              0x01\n                /* \"#utility.yul\":3824:3830   */\n              dup3\n                /* \"#utility.yul\":3820:3837   */\n              mul\n                /* \"#utility.yul\":3810:3818   */\n              dup4\n                /* \"#utility.yul\":3806:3838   */\n              add\n                /* \"#utility.yul\":3803:3844   */\n              gt\n                /* \"#utility.yul\":3800:3928   */\n              iszero\n              tag_153\n              jumpi\n                /* \"#utility.yul\":3847:3926   */\n              tag_154\n              tag_98\n              jump\t// in\n            tag_154:\n                /* \"#utility.yul\":3800:3928   */\n            tag_153:\n                /* \"#utility.yul\":3381:3934   */\n              swap3\n              pop\n              swap3\n              swap1\n              pop\n              jump\t// out\n                /* \"#utility.yul\":3940:4044   */\n            tag_100:\n                /* \"#utility.yul\":3985:3992   */\n              0x00\n                /* \"#utility.yul\":4014:4038   */\n              tag_156\n                /* \"#utility.yul\":4032:4037   */\n              dup3\n                /* \"#utility.yul\":4014:4038   */\n              tag_88\n              jump\t// in\n            tag_156:\n                /* \"#utility.yul\":4003:4038   */\n              swap1\n              pop\n                /* \"#utility.yul\":3940:4044   */\n              swap2\n              swap1\n              pop\n              jump\t// out\n                /* \"#utility.yul\":4050:4188   */\n            tag_101:\n                /* \"#utility.yul\":4131:4163   */\n              tag_158\n                /* \"#utility.yul\":4157:4162   */\n              dup2\n                /* \"#utility.yul\":4131:4163   */\n              tag_100\n              jump\t// in\n            tag_158:\n                /* \"#utility.yul\":4124:4129   */\n              dup2\n                /* \"#utility.yul\":4121:4164   */\n              eq\n                /* \"#utility.yul\":4111:4182   */\n              tag_159\n              jumpi\n                /* \"#utility.yul\":4178:4179   */\n              0x00\n                /* \"#utility.yul\":4175:4176   */\n              dup1\n                /* \"#utility.yul\":4168:4180   */\n              revert\n                /* \"#utility.yul\":4111:4182   */\n            tag_159:\n                /* \"#utility.yul\":4050:4188   */\n              pop\n              jump\t// out\n                /* \"#utility.yul\":4194:4349   */\n            tag_102:\n                /* \"#utility.yul\":4248:4253   */\n              0x00\n                /* \"#utility.yul\":4286:4292   */\n              dup2\n                /* \"#utility.yul\":4273:4293   */\n              calldataload\n                /* \"#utility.yul\":4264:4293   */\n              swap1\n              pop\n                /* \"#utility.yul\":4302:4343   */\n              tag_161\n                /* \"#utility.yul\":4337:4342   */\n              dup2\n                /* \"#utility.yul\":4302:4343   */\n              tag_101\n              jump\t// in\n            tag_161:\n                /* \"#utility.yul\":4194:4349   */\n              swap3\n              swap2\n              pop\n              pop\n              jump\t// out\n                /* \"#utility.yul\":4355:5190   */\n            tag_36:\n                /* \"#utility.yul\":4452:4458   */\n              0x00\n                /* \"#utility.yul\":4460:4466   */\n              dup1\n                /* \"#utility.yul\":4468:4474   */\n              0x00\n                /* \"#utility.yul\":4476:4482   */\n              dup1\n                /* \"#utility.yul\":4525:4527   */\n              0x60\n                /* \"#utility.yul\":4513:4522   */\n              dup6\n                /* \"#utility.yul\":4504:4511   */\n              dup8\n                /* \"#utility.yul\":4500:4523   */\n              sub\n                /* \"#utility.yul\":4496:4528   */\n              slt\n                /* \"#utility.yul\":4493:4612   */\n              iszero\n              tag_163\n              jumpi\n                /* \"#utility.yul\":4531:4610   */\n              tag_164\n              tag_83\n              jump\t// in\n            tag_164:\n                /* \"#utility.yul\":4493:4612   */\n            tag_163:\n                /* \"#utility.yul\":4679:4680   */\n              0x00\n                /* \"#utility.yul\":4668:4677   */\n              dup6\n                /* \"#utility.yul\":4664:4681   */\n              add\n                /* \"#utility.yul\":4651:4682   */\n              calldataload\n                /* \"#utility.yul\":4709:4727   */\n              0xffffffffffffffff\n                /* \"#utility.yul\":4701:4707   */\n              dup2\n                /* \"#utility.yul\":4698:4728   */\n              gt\n                /* \"#utility.yul\":4695:4812   */\n              iszero\n              tag_165\n              jumpi\n                /* \"#utility.yul\":4731:4810   */\n              tag_166\n              tag_84\n              jump\t// in\n            tag_166:\n                /* \"#utility.yul\":4695:4812   */\n            tag_165:\n                /* \"#utility.yul\":4844:4909   */\n              tag_167\n                /* \"#utility.yul\":4901:4908   */\n              dup8\n                /* \"#utility.yul\":4892:4898   */\n              dup3\n                /* \"#utility.yul\":4881:4890   */\n              dup9\n                /* \"#utility.yul\":4877:4899   */\n              add\n                /* \"#utility.yul\":4844:4909   */\n              tag_99\n              jump\t// in\n            tag_167:\n                /* \"#utility.yul\":4826:4909   */\n              swap5\n              pop\n              swap5\n              pop\n                /* \"#utility.yul\":4622:4919   */\n              pop\n                /* \"#utility.yul\":4958:4960   */\n              0x20\n                /* \"#utility.yul\":4984:5037   */\n              tag_168\n                /* \"#utility.yul\":5029:5036   */\n              dup8\n                /* \"#utility.yul\":5020:5026   */\n              dup3\n                /* \"#utility.yul\":5009:5018   */\n              dup9\n                /* \"#utility.yul\":5005:5027   */\n              add\n                /* \"#utility.yul\":4984:5037   */\n              tag_87\n              jump\t// in\n            tag_168:\n                /* \"#utility.yul\":4974:5037   */\n              swap3\n              pop\n                /* \"#utility.yul\":4929:5047   */\n              pop\n                /* \"#utility.yul\":5086:5088   */\n              0x40\n                /* \"#utility.yul\":5112:5173   */\n              tag_169\n                /* \"#utility.yul\":5165:5172   */\n              dup8\n                /* \"#utility.yul\":5156:5162   */\n              dup3\n                /* \"#utility.yul\":5145:5154   */\n              dup9\n                /* \"#utility.yul\":5141:5163   */\n              add\n                /* \"#utility.yul\":5112:5173   */\n              tag_102\n              jump\t// in\n            tag_169:\n                /* \"#utility.yul\":5102:5173   */\n              swap2\n              pop\n                /* \"#utility.yul\":5057:5183   */\n              pop\n                /* \"#utility.yul\":4355:5190   */\n              swap3\n              swap6\n              swap2\n              swap5\n              pop\n              swap3\n              pop\n              jump\t// out\n                /* \"#utility.yul\":5196:5376   */\n            tag_103:\n                /* \"#utility.yul\":5244:5321   */\n              0x4e487b7100000000000000000000000000000000000000000000000000000000\n                /* \"#utility.yul\":5241:5242   */\n              0x00\n                /* \"#utility.yul\":5234:5322   */\n              mstore\n                /* \"#utility.yul\":5341:5345   */\n              0x12\n                /* \"#utility.yul\":5338:5339   */\n              0x04\n                /* \"#utility.yul\":5331:5346   */\n              mstore\n                /* \"#utility.yul\":5365:5369   */\n              0x24\n                /* \"#utility.yul\":5362:5363   */\n              0x00\n                /* \"#utility.yul\":5355:5370   */\n              revert\n                /* \"#utility.yul\":5382:5562   */\n            tag_104:\n                /* \"#utility.yul\":5430:5507   */\n              0x4e487b7100000000000000000000000000000000000000000000000000000000\n                /* \"#utility.yul\":5427:5428   */\n              0x00\n                /* \"#utility.yul\":5420:5508   */\n              mstore\n                /* \"#utility.yul\":5527:5531   */\n              0x11\n                /* \"#utility.yul\":5524:5525   */\n              0x04\n                /* \"#utility.yul\":5517:5532   */\n              mstore\n                /* \"#utility.yul\":5551:5555   */\n              0x24\n                /* \"#utility.yul\":5548:5549   */\n              0x00\n                /* \"#utility.yul\":5541:5556   */\n              revert\n                /* \"#utility.yul\":5568:5753   */\n            tag_52:\n                /* \"#utility.yul\":5608:5609   */\n              0x00\n                /* \"#utility.yul\":5625:5645   */\n              tag_173\n                /* \"#utility.yul\":5643:5644   */\n              dup3\n                /* \"#utility.yul\":5625:5645   */\n              tag_85\n              jump\t// in\n            tag_173:\n                /* \"#utility.yul\":5620:5645   */\n              swap2\n              pop\n                /* \"#utility.yul\":5659:5679   */\n              tag_174\n                /* \"#utility.yul\":5677:5678   */\n              dup4\n                /* \"#utility.yul\":5659:5679   */\n              tag_85\n              jump\t// in\n            tag_174:\n                /* \"#utility.yul\":5654:5679   */\n              swap3\n              pop\n                /* \"#utility.yul\":5698:5699   */\n              dup3\n                /* \"#utility.yul\":5688:5723   */\n              tag_175\n              jumpi\n                /* \"#utility.yul\":5703:5721   */\n              tag_176\n              tag_103\n              jump\t// in\n            tag_176:\n                /* \"#utility.yul\":5688:5723   */\n            tag_175:\n                /* \"#utility.yul\":5745:5746   */\n              dup3\n                /* \"#utility.yul\":5742:5743   */\n              dup3\n                /* \"#utility.yul\":5738:5747   */\n              div\n                /* \"#utility.yul\":5733:5747   */\n              swap1\n              pop\n                /* \"#utility.yul\":5568:5753   */\n              swap3\n              swap2\n              pop\n              pop\n              jump\t// out\n                /* \"#utility.yul\":5759:5992   */\n            tag_61:\n                /* \"#utility.yul\":5798:5801   */\n              0x00\n                /* \"#utility.yul\":5821:5845   */\n              tag_178\n                /* \"#utility.yul\":5839:5844   */\n              dup3\n                /* \"#utility.yul\":5821:5845   */\n              tag_85\n              jump\t// in\n            tag_178:\n                /* \"#utility.yul\":5812:5845   */\n              swap2\n              pop\n                /* \"#utility.yul\":5867:5933   */\n              0xffffffffffffffffffffffffffffffffffffffffffffffffffffffffffffffff\n                /* \"#utility.yul\":5860:5865   */\n              dup3\n                /* \"#utility.yul\":5857:5934   */\n              eq\n                /* \"#utility.yul\":5854:5957   */\n              iszero\n              tag_179\n              jumpi\n                /* \"#utility.yul\":5937:5955   */\n              tag_180\n              tag_104\n              jump\t// in\n            tag_180:\n                /* \"#utility.yul\":5854:5957   */\n            tag_179:\n                /* \"#utility.yul\":5984:5985   */\n              0x01\n                /* \"#utility.yul\":5977:5982   */\n              dup3\n                /* \"#utility.yul\":5973:5986   */\n              add\n                /* \"#utility.yul\":5966:5986   */\n              swap1\n              pop\n                /* \"#utility.yul\":5759:5992   */\n              swap2\n              swap1\n              pop\n              jump\t// out\n                /* \"#utility.yul\":5998:6178   */\n            tag_105:\n                /* \"#utility.yul\":6046:6123   */\n              0x4e487b7100000000000000000000000000000000000000000000000000000000\n                /* \"#utility.yul\":6043:6044   */\n              0x00\n                /* \"#utility.yul\":6036:6124   */\n              mstore\n                /* \"#utility.yul\":6143:6147   */\n              0x22\n                /* \"#utility.yul\":6140:6141   */\n              0x04\n                /* \"#utility.yul\":6133:6148   */\n              mstore\n                /* \"#utility.yul\":6167:6171   */\n              0x24\n                /* \"#utility.yul\":6164:6165   */\n              0x00\n                /* \"#utility.yul\":6157:6172   */\n              revert\n                /* \"#utility.yul\":6184:6504   */\n            tag_72:\n                /* \"#utility.yul\":6228:6234   */\n              0x00\n                /* \"#utility.yul\":6265:6266   */\n              0x02\n                /* \"#utility.yul\":6259:6263   */\n              dup3\n                /* \"#utility.yul\":6255:6267   */\n              div\n                /* \"#utility.yul\":6245:6267   */\n              swap1\n              pop\n                /* \"#utility.yul\":6312:6313   */\n              0x01\n                /* \"#utility.yul\":6306:6310   */\n              dup3\n                /* \"#utility.yul\":6302:6314   */\n              and\n                /* \"#utility.yul\":6333:6351   */\n              dup1\n                /* \"#utility.yul\":6323:6404   */\n              tag_183\n              jumpi\n                /* \"#utility.yul\":6389:6393   */\n              0x7f\n                /* \"#utility.yul\":6381:6387   */\n              dup3\n                /* \"#utility.yul\":6377:6394   */\n              and\n                /* \"#utility.yul\":6367:6394   */\n              swap2\n              pop\n                /* \"#utility.yul\":6323:6404   */\n            tag_183:\n                /* \"#utility.yul\":6451:6453   */\n              0x20\n                /* \"#utility.yul\":6443:6449   */\n              dup3\n                /* \"#utility.yul\":6440:6454   */\n              lt\n                /* \"#utility.yul\":6420:6438   */\n              dup2\n                /* \"#utility.yul\":6417:6455   */\n              eq\n                /* \"#utility.yul\":6414:6498   */\n              iszero\n              tag_184\n              jumpi\n                /* \"#utility.yul\":6470:6488   */\n              tag_185\n              tag_105\n              jump\t// in\n            tag_185:\n                /* \"#utility.yul\":6414:6498   */\n            tag_184:\n                /* \"#utility.yul\":6235:6504   */\n              pop\n                /* \"#utility.yul\":6184:6504   */\n              swap2\n              swap1\n              pop\n              jump\t// out\n\n            auxdata: 0xa2646970667358221220298eb0090bccb8da4a235cb100312962747e5c746385665be0895f11e71b544564736f6c63430008090033\n        }\n    }\n\n    auxdata: 0xa26469706673582212206a89d2f95a4e2251b5da4dcd4b02f8051c6e76f987bb4711565fb1dc0dfa9d1764736f6c63430008090033\n}\n",
    "bytecode": {
      "linkReferences": {},
      "object": "608060405234801561001057600080fd5b506110b5806100206000396000f3fe608060405234801561001057600080fd5b50600436106100415760003560e01c8063339d50a5146100465780634acb9d4f14610076578063a3303a7514610094575b600080fd5b610060600480360381019061005b9190610266565b6100b0565b60405161006d9190610312565b60405180910390f35b61007e6100ef565b60405161008b91906103eb565b60405180910390f35b6100ae60048036038101906100a99190610266565b61017d565b005b600081815481106100c057600080fd5b906000526020600020016000915054906101000a900473ffffffffffffffffffffffffffffffffffffffff1681565b6060600080548060200260200160405190810160405280929190818152602001828054801561017357602002820191906000526020600020905b8160009054906101000a900473ffffffffffffffffffffffffffffffffffffffff1673ffffffffffffffffffffffffffffffffffffffff1681526020019060010190808311610129575b5050505050905090565b6000813360405161018d9061021e565b61019892919061043d565b604051809103906000f0801580156101b4573d6000803e3d6000fd5b5090506000819080600181540180825580915050600190039060005260206000200160009091909190916101000a81548173ffffffffffffffffffffffffffffffffffffffff021916908373ffffffffffffffffffffffffffffffffffffffff1602179055505050565b610c198061046783390190565b600080fd5b6000819050919050565b61024381610230565b811461024e57600080fd5b50565b6000813590506102608161023a565b92915050565b60006020828403121561027c5761027b61022b565b5b600061028a84828501610251565b91505092915050565b600073ffffffffffffffffffffffffffffffffffffffff82169050919050565b6000819050919050565b60006102d86102d36102ce84610293565b6102b3565b610293565b9050919050565b60006102ea826102bd565b9050919050565b60006102fc826102df565b9050919050565b61030c816102f1565b82525050565b60006020820190506103276000830184610303565b92915050565b600081519050919050565b600082825260208201905092915050565b6000819050602082019050919050565b610362816102f1565b82525050565b60006103748383610359565b60208301905092915050565b6000602082019050919050565b60006103988261032d565b6103a28185610338565b93506103ad83610349565b8060005b838110156103de5781516103c58882610368565b97506103d083610380565b9250506001810190506103b1565b5085935050505092915050565b60006020820190508181036000830152610405818461038d565b905092915050565b61041681610230565b82525050565b600061042782610293565b9050919050565b6104378161041c565b82525050565b6000604082019050610452600083018561040d565b61045f602083018461042e565b939250505056fe608060405234801561001057600080fd5b5060405162000c1938038062000c198339818101604052810190610034919061011b565b806000806101000a81548173ffffffffffffffffffffffffffffffffffffffff021916908373ffffffffffffffffffffffffffffffffffffffff16021790555081600181905550505061015b565b600080fd5b6000819050919050565b61009a81610087565b81146100a557600080fd5b50565b6000815190506100b781610091565b92915050565b600073ffffffffffffffffffffffffffffffffffffffff82169050919050565b60006100e8826100bd565b9050919050565b6100f8816100dd565b811461010357600080fd5b50565b600081519050610115816100ef565b92915050565b6000806040838503121561013257610131610082565b5b6000610140858286016100a8565b925050602061015185828601610106565b9150509250929050565b610aae806200016b6000396000f3fe60806040526004361061007b5760003560e01c80638a9cfd551161004e5780638a9cfd551461013c578063937e09b114610165578063d7bb99ba14610190578063d7d1bbdb1461019a5761007b565b806303441006146100805780630a144391146100a9578063481c6a75146100e657806382fde09314610111575b600080fd5b34801561008c57600080fd5b506100a760048036038101906100a291906106e6565b6101c3565b005b3480156100b557600080fd5b506100d060048036038101906100cb9190610771565b6102fb565b6040516100dd91906107b9565b60405180910390f35b3480156100f257600080fd5b506100fb61031b565b60405161010891906107e3565b60405180910390f35b34801561011d57600080fd5b5061012661033f565b604051610133919061080d565b60405180910390f35b34801561014857600080fd5b50610163600480360381019061015e91906108cb565b610345565b005b34801561017157600080fd5b5061017a61043f565b604051610187919061080d565b60405180910390f35b610198610445565b005b3480156101a657600080fd5b506101c160048036038101906101bc91906106e6565b6104c5565b005b60008054906101000a900473ffffffffffffffffffffffffffffffffffffffff1673ffffffffffffffffffffffffffffffffffffffff163373ffffffffffffffffffffffffffffffffffffffff161461021b57600080fd5b600060056000838152602001908152602001600020905060028054610240919061099d565b81600301541161024f57600080fd5b8060020160149054906101000a900460ff161561026b57600080fd5b8060020160009054906101000a900473ffffffffffffffffffffffffffffffffffffffff1673ffffffffffffffffffffffffffffffffffffffff166108fc82600101549081150290604051600060405180830381858888f193505050501580156102d9573d6000803e3d6000fd5b5060018160020160146101000a81548160ff0219169083151502179055505050565b60046020528060005260406000206000915054906101000a900460ff1681565b60008054906101000a900473ffffffffffffffffffffffffffffffffffffffff1681565b60025481565b60008054906101000a900473ffffffffffffffffffffffffffffffffffffffff1673ffffffffffffffffffffffffffffffffffffffff163373ffffffffffffffffffffffffffffffffffffffff161461039d57600080fd5b60006005600060035481526020019081526020016000209050600360008154809291906103c9906109ce565b919050555084848260000191906103e1929190610603565b50828160010181905550818160020160006101000a81548173ffffffffffffffffffffffffffffffffffffffff021916908373ffffffffffffffffffffffffffffffffffffffff160217905550600081600301819055505050505050565b60015481565b600154341161045357600080fd5b6001600460003373ffffffffffffffffffffffffffffffffffffffff1673ffffffffffffffffffffffffffffffffffffffff16815260200190815260200160002060006101000a81548160ff021916908315150217905550600260008154809291906104be906109ce565b9190505550565b6000600560008381526020019081526020016000209050600460003373ffffffffffffffffffffffffffffffffffffffff1673ffffffffffffffffffffffffffffffffffffffff16815260200190815260200160002060009054906101000a900460ff1661053257600080fd5b8060040160003373ffffffffffffffffffffffffffffffffffffffff1673ffffffffffffffffffffffffffffffffffffffff16815260200190815260200160002060009054906101000a900460ff161561058b57600080fd5b60018160040160003373ffffffffffffffffffffffffffffffffffffffff1673ffffffffffffffffffffffffffffffffffffffff16815260200190815260200160002060006101000a81548160ff0219169083151502179055508060030160008154809291906105fa906109ce565b91905055505050565b82805461060f90610a46565b90600052602060002090601f0160209004810192826106315760008555610678565b82601f1061064a57803560ff1916838001178555610678565b82800160010185558215610678579182015b8281111561067757823582559160200191906001019061065c565b5b5090506106859190610689565b5090565b5b808211156106a257600081600090555060010161068a565b5090565b600080fd5b600080fd5b6000819050919050565b6106c3816106b0565b81146106ce57600080fd5b50565b6000813590506106e0816106ba565b92915050565b6000602082840312156106fc576106fb6106a6565b5b600061070a848285016106d1565b91505092915050565b600073ffffffffffffffffffffffffffffffffffffffff82169050919050565b600061073e82610713565b9050919050565b61074e81610733565b811461075957600080fd5b50565b60008135905061076b81610745565b92915050565b600060208284031215610787576107866106a6565b5b60006107958482850161075c565b91505092915050565b60008115159050919050565b6107b38161079e565b82525050565b60006020820190506107ce60008301846107aa565b92915050565b6107dd81610733565b82525050565b60006020820190506107f860008301846107d4565b92915050565b610807816106b0565b82525050565b600060208201905061082260008301846107fe565b92915050565b600080fd5b600080fd5b600080fd5b60008083601f84011261084d5761084c610828565b5b8235905067ffffffffffffffff81111561086a5761086961082d565b5b60208301915083600182028301111561088657610885610832565b5b9250929050565b600061089882610713565b9050919050565b6108a88161088d565b81146108b357600080fd5b50565b6000813590506108c58161089f565b92915050565b600080600080606085870312156108e5576108e46106a6565b5b600085013567ffffffffffffffff811115610903576109026106ab565b5b61090f87828801610837565b94509450506020610922878288016106d1565b9250506040610933878288016108b6565b91505092959194509250565b7f4e487b7100000000000000000000000000000000000000000000000000000000600052601260045260246000fd5b7f4e487b7100000000000000000000000000000000000000000000000000000000600052601160045260246000fd5b60006109a8826106b0565b91506109b3836106b0565b9250826109c3576109c261093f565b5b828204905092915050565b60006109d9826106b0565b91507fffffffffffffffffffffffffffffffffffffffffffffffffffffffffffffffff821415610a0c57610a0b61096e565b5b600182019050919050565b7f4e487b7100000000000000000000000000000000000000000000000000000000600052602260045260246000fd5b60006002820490506001821680610a5e57607f821691505b60208210811415610a7257610a71610a17565b5b5091905056fea2646970667358221220298eb0090bccb8da4a235cb100312962747e5c746385665be0895f11e71b544564736f6c63430008090033a26469706673582212206a89d2f95a4e2251b5da4dcd4b02f8051c6e76f987bb4711565fb1dc0dfa9d1764736f6c63430008090033",
      "opcodes": "PUSH1 0x80 PUSH1 0x40 MSTORE CALLVALUE DUP1 ISZERO PUSH2 0x10 JUMPI PUSH1 0x0 DUP1 REVERT JUMPDEST POP PUSH2 0x10B5 DUP1 PUSH2 0x20 PUSH1 0x0 CODECOPY PUSH1 0x0 RETURN INVALID PUSH1 0x80 PUSH1 0x40 MSTORE CALLVALUE DUP1 ISZERO PUSH2 0x10 JUMPI PUSH1 0x0 DUP1 REVERT JUMPDEST POP PUSH1 0x4 CALLDATASIZE LT PUSH2 0x41 JUMPI PUSH1 0x0 CALLDATALOAD PUSH1 0xE0 SHR DUP1 PUSH4 0x339D50A5 EQ PUSH2 0x46 JUMPI DUP1 PUSH4 0x4ACB9D4F EQ PUSH2 0x76 JUMPI DUP1 PUSH4 0xA3303A75 EQ PUSH2 0x94 JUMPI JUMPDEST PUSH1 0x0 DUP1 REVERT JUMPDEST PUSH2 0x60 PUSH1 0x4 DUP1 CALLDATASIZE SUB DUP2 ADD SWAP1 PUSH2 0x5B SWAP2 SWAP1 PUSH2 0x266 JUMP JUMPDEST PUSH2 0xB0 JUMP JUMPDEST PUSH1 0x40 MLOAD PUSH2 0x6D SWAP2 SWAP1 PUSH2 0x312 JUMP JUMPDEST PUSH1 0x40 MLOAD DUP1 SWAP2 SUB SWAP1 RETURN JUMPDEST PUSH2 0x7E PUSH2 0xEF JUMP JUMPDEST PUSH1 0x40 MLOAD PUSH2 0x8B SWAP2 SWAP1 PUSH2 0x3EB JUMP JUMPDEST PUSH1 0x40 MLOAD DUP1 SWAP2 SUB SWAP1 RETURN JUMPDEST PUSH2 0xAE PUSH1 0x4 DUP1 CALLDATASIZE SUB DUP2 ADD SWAP1 PUSH2 0xA9 SWAP2 SWAP1 PUSH2 0x266 JUMP JUMPDEST PUSH2 0x17D JUMP JUMPDEST STOP JUMPDEST PUSH1 0x0 DUP2 DUP2 SLOAD DUP2 LT PUSH2 0xC0 JUMPI PUSH1 0x0 DUP1 REVERT JUMPDEST SWAP1 PUSH1 0x0 MSTORE PUSH1 0x20 PUSH1 0x0 KECCAK256 ADD PUSH1 0x0 SWAP2 POP SLOAD SWAP1 PUSH2 0x100 EXP SWAP1 DIV PUSH20 0xFFFFFFFFFFFFFFFFFFFFFFFFFFFFFFFFFFFFFFFF AND DUP2 JUMP JUMPDEST PUSH1 0x60 PUSH1 0x0 DUP1 SLOAD DUP1 PUSH1 0x20 MUL PUSH1 0x20 ADD PUSH1 0x40 MLOAD SWAP1 DUP2 ADD PUSH1 0x40 MSTORE DUP1 SWAP3 SWAP2 SWAP1 DUP2 DUP2 MSTORE PUSH1 0x20 ADD DUP3 DUP1 SLOAD DUP1 ISZERO PUSH2 0x173 JUMPI PUSH1 0x20 MUL DUP3 ADD SWAP2 SWAP1 PUSH1 0x0 MSTORE PUSH1 0x20 PUSH1 0x0 KECCAK256 SWAP1 JUMPDEST DUP2 PUSH1 0x0 SWAP1 SLOAD SWAP1 PUSH2 0x100 EXP SWAP1 DIV PUSH20 0xFFFFFFFFFFFFFFFFFFFFFFFFFFFFFFFFFFFFFFFF AND PUSH20 0xFFFFFFFFFFFFFFFFFFFFFFFFFFFFFFFFFFFFFFFF AND DUP2 MSTORE PUSH1 0x20 ADD SWAP1 PUSH1 0x1 ADD SWAP1 DUP1 DUP4 GT PUSH2 0x129 JUMPI JUMPDEST POP POP POP POP POP SWAP1 POP SWAP1 JUMP JUMPDEST PUSH1 0x0 DUP2 CALLER PUSH1 0x40 MLOAD PUSH2 0x18D SWAP1 PUSH2 0x21E JUMP JUMPDEST PUSH2 0x198 SWAP3 SWAP2 SWAP1 PUSH2 0x43D JUMP JUMPDEST PUSH1 0x40 MLOAD DUP1 SWAP2 SUB SWAP1 PUSH1 0x0 CREATE DUP1 ISZERO DUP1 ISZERO PUSH2 0x1B4 JUMPI RETURNDATASIZE PUSH1 0x0 DUP1 RETURNDATACOPY RETURNDATASIZE PUSH1 0x0 REVERT JUMPDEST POP SWAP1 POP PUSH1 0x0 DUP2 SWAP1 DUP1 PUSH1 0x1 DUP2 SLOAD ADD DUP1 DUP3 SSTORE DUP1 SWAP2 POP POP PUSH1 0x1 SWAP1 SUB SWAP1 PUSH1 0x0 MSTORE PUSH1 0x20 PUSH1 0x0 KECCAK256 ADD PUSH1 0x0 SWAP1 SWAP2 SWAP1 SWAP2 SWAP1 SWAP2 PUSH2 0x100 EXP DUP2 SLOAD DUP2 PUSH20 0xFFFFFFFFFFFFFFFFFFFFFFFFFFFFFFFFFFFFFFFF MUL NOT AND SWAP1 DUP4 PUSH20 0xFFFFFFFFFFFFFFFFFFFFFFFFFFFFFFFFFFFFFFFF AND MUL OR SWAP1 SSTORE POP POP POP JUMP JUMPDEST PUSH2 0xC19 DUP1 PUSH2 0x467 DUP4 CODECOPY ADD SWAP1 JUMP JUMPDEST PUSH1 0x0 DUP1 REVERT JUMPDEST PUSH1 0x0 DUP2 SWAP1 POP SWAP2 SWAP1 POP JUMP JUMPDEST PUSH2 0x243 DUP2 PUSH2 0x230 JUMP JUMPDEST DUP2 EQ PUSH2 0x24E JUMPI PUSH1 0x0 DUP1 REVERT JUMPDEST POP JUMP JUMPDEST PUSH1 0x0 DUP2 CALLDATALOAD SWAP1 POP PUSH2 0x260 DUP2 PUSH2 0x23A JUMP JUMPDEST SWAP3 SWAP2 POP POP JUMP JUMPDEST PUSH1 0x0 PUSH1 0x20 DUP3 DUP5 SUB SLT ISZERO PUSH2 0x27C JUMPI PUSH2 0x27B PUSH2 0x22B JUMP JUMPDEST JUMPDEST PUSH1 0x0 PUSH2 0x28A DUP5 DUP3 DUP6 ADD PUSH2 0x251 JUMP JUMPDEST SWAP2 POP POP SWAP3 SWAP2 POP POP JUMP JUMPDEST PUSH1 0x0 PUSH20 0xFFFFFFFFFFFFFFFFFFFFFFFFFFFFFFFFFFFFFFFF DUP3 AND SWAP1 POP SWAP2 SWAP1 POP JUMP JUMPDEST PUSH1 0x0 DUP2 SWAP1 POP SWAP2 SWAP1 POP JUMP JUMPDEST PUSH1 0x0 PUSH2 0x2D8 PUSH2 0x2D3 PUSH2 0x2CE DUP5 PUSH2 0x293 JUMP JUMPDEST PUSH2 0x2B3 JUMP JUMPDEST PUSH2 0x293 JUMP JUMPDEST SWAP1 POP SWAP2 SWAP1 POP JUMP JUMPDEST PUSH1 0x0 PUSH2 0x2EA DUP3 PUSH2 0x2BD JUMP JUMPDEST SWAP1 POP SWAP2 SWAP1 POP JUMP JUMPDEST PUSH1 0x0 PUSH2 0x2FC DUP3 PUSH2 0x2DF JUMP JUMPDEST SWAP1 POP SWAP2 SWAP1 POP JUMP JUMPDEST PUSH2 0x30C DUP2 PUSH2 0x2F1 JUMP JUMPDEST DUP3 MSTORE POP POP JUMP JUMPDEST PUSH1 0x0 PUSH1 0x20 DUP3 ADD SWAP1 POP PUSH2 0x327 PUSH1 0x0 DUP4 ADD DUP5 PUSH2 0x303 JUMP JUMPDEST SWAP3 SWAP2 POP POP JUMP JUMPDEST PUSH1 0x0 DUP2 MLOAD SWAP1 POP SWAP2 SWAP1 POP JUMP JUMPDEST PUSH1 0x0 DUP3 DUP3 MSTORE PUSH1 0x20 DUP3 ADD SWAP1 POP SWAP3 SWAP2 POP POP JUMP JUMPDEST PUSH1 0x0 DUP2 SWAP1 POP PUSH1 0x20 DUP3 ADD SWAP1 POP SWAP2 SWAP1 POP JUMP JUMPDEST PUSH2 0x362 DUP2 PUSH2 0x2F1 JUMP JUMPDEST DUP3 MSTORE POP POP JUMP JUMPDEST PUSH1 0x0 PUSH2 0x374 DUP4 DUP4 PUSH2 0x359 JUMP JUMPDEST PUSH1 0x20 DUP4 ADD SWAP1 POP SWAP3 SWAP2 POP POP JUMP JUMPDEST PUSH1 0x0 PUSH1 0x20 DUP3 ADD SWAP1 POP SWAP2 SWAP1 POP JUMP JUMPDEST PUSH1 0x0 PUSH2 0x398 DUP3 PUSH2 0x32D JUMP JUMPDEST PUSH2 0x3A2 DUP2 DUP6 PUSH2 0x338 JUMP JUMPDEST SWAP4 POP PUSH2 0x3AD DUP4 PUSH2 0x349 JUMP JUMPDEST DUP1 PUSH1 0x0 JUMPDEST DUP4 DUP2 LT ISZERO PUSH2 0x3DE JUMPI DUP2 MLOAD PUSH2 0x3C5 DUP9 DUP3 PUSH2 0x368 JUMP JUMPDEST SWAP8 POP PUSH2 0x3D0 DUP4 PUSH2 0x380 JUMP JUMPDEST SWAP3 POP POP PUSH1 0x1 DUP2 ADD SWAP1 POP PUSH2 0x3B1 JUMP JUMPDEST POP DUP6 SWAP4 POP POP POP POP SWAP3 SWAP2 POP POP JUMP JUMPDEST PUSH1 0x0 PUSH1 0x20 DUP3 ADD SWAP1 POP DUP2 DUP2 SUB PUSH1 0x0 DUP4 ADD MSTORE PUSH2 0x405 DUP2 DUP5 PUSH2 0x38D JUMP JUMPDEST SWAP1 POP SWAP3 SWAP2 POP POP JUMP JUMPDEST PUSH2 0x416 DUP2 PUSH2 0x230 JUMP JUMPDEST DUP3 MSTORE POP POP JUMP JUMPDEST PUSH1 0x0 PUSH2 0x427 DUP3 PUSH2 0x293 JUMP JUMPDEST SWAP1 POP SWAP2 SWAP1 POP JUMP JUMPDEST PUSH2 0x437 DUP2 PUSH2 0x41C JUMP JUMPDEST DUP3 MSTORE POP POP JUMP JUMPDEST PUSH1 0x0 PUSH1 0x40 DUP3 ADD SWAP1 POP PUSH2 0x452 PUSH1 0x0 DUP4 ADD DUP6 PUSH2 0x40D JUMP JUMPDEST PUSH2 0x45F PUSH1 0x20 DUP4 ADD DUP5 PUSH2 0x42E JUMP JUMPDEST SWAP4 SWAP3 POP POP POP JUMP INVALID PUSH1 0x80 PUSH1 0x40 MSTORE CALLVALUE DUP1 ISZERO PUSH2 0x10 JUMPI PUSH1 0x0 DUP1 REVERT JUMPDEST POP PUSH1 0x40 MLOAD PUSH3 0xC19 CODESIZE SUB DUP1 PUSH3 0xC19 DUP4 CODECOPY DUP2 DUP2 ADD PUSH1 0x40 MSTORE DUP2 ADD SWAP1 PUSH2 0x34 SWAP2 SWAP1 PUSH2 0x11B JUMP JUMPDEST DUP1 PUSH1 0x0 DUP1 PUSH2 0x100 EXP DUP2 SLOAD DUP2 PUSH20 0xFFFFFFFFFFFFFFFFFFFFFFFFFFFFFFFFFFFFFFFF MUL NOT AND SWAP1 DUP4 PUSH20 0xFFFFFFFFFFFFFFFFFFFFFFFFFFFFFFFFFFFFFFFF AND MUL OR SWAP1 SSTORE POP DUP2 PUSH1 0x1 DUP2 SWAP1 SSTORE POP POP POP PUSH2 0x15B JUMP JUMPDEST PUSH1 0x0 DUP1 REVERT JUMPDEST PUSH1 0x0 DUP2 SWAP1 POP SWAP2 SWAP1 POP JUMP JUMPDEST PUSH2 0x9A DUP2 PUSH2 0x87 JUMP JUMPDEST DUP2 EQ PUSH2 0xA5 JUMPI PUSH1 0x0 DUP1 REVERT JUMPDEST POP JUMP JUMPDEST PUSH1 0x0 DUP2 MLOAD SWAP1 POP PUSH2 0xB7 DUP2 PUSH2 0x91 JUMP JUMPDEST SWAP3 SWAP2 POP POP JUMP JUMPDEST PUSH1 0x0 PUSH20 0xFFFFFFFFFFFFFFFFFFFFFFFFFFFFFFFFFFFFFFFF DUP3 AND SWAP1 POP SWAP2 SWAP1 POP JUMP JUMPDEST PUSH1 0x0 PUSH2 0xE8 DUP3 PUSH2 0xBD JUMP JUMPDEST SWAP1 POP SWAP2 SWAP1 POP JUMP JUMPDEST PUSH2 0xF8 DUP2 PUSH2 0xDD JUMP JUMPDEST DUP2 EQ PUSH2 0x103 JUMPI PUSH1 0x0 DUP1 REVERT JUMPDEST POP JUMP JUMPDEST PUSH1 0x0 DUP2 MLOAD SWAP1 POP PUSH2 0x115 DUP2 PUSH2 0xEF JUMP JUMPDEST SWAP3 SWAP2 POP POP JUMP JUMPDEST PUSH1 0x0 DUP1 PUSH1 0x40 DUP4 DUP6 SUB SLT ISZERO PUSH2 0x132 JUMPI PUSH2 0x131 PUSH2 0x82 JUMP JUMPDEST JUMPDEST PUSH1 0x0 PUSH2 0x140 DUP6 DUP3 DUP7 ADD PUSH2 0xA8 JUMP JUMPDEST SWAP3 POP POP PUSH1 0x20 PUSH2 0x151 DUP6 DUP3 DUP7 ADD PUSH2 0x106 JUMP JUMPDEST SWAP2 POP POP SWAP3 POP SWAP3 SWAP1 POP JUMP JUMPDEST PUSH2 0xAAE DUP1 PUSH3 0x16B PUSH1 0x0 CODECOPY PUSH1 0x0 RETURN INVALID PUSH1 0x80 PUSH1 0x40 MSTORE PUSH1 0x4 CALLDATASIZE LT PUSH2 0x7B JUMPI PUSH1 0x0 CALLDATALOAD PUSH1 0xE0 SHR DUP1 PUSH4 0x8A9CFD55 GT PUSH2 0x4E JUMPI DUP1 PUSH4 0x8A9CFD55 EQ PUSH2 0x13C JUMPI DUP1 PUSH4 0x937E09B1 EQ PUSH2 0x165 JUMPI DUP1 PUSH4 0xD7BB99BA EQ PUSH2 0x190 JUMPI DUP1 PUSH4 0xD7D1BBDB EQ PUSH2 0x19A JUMPI PUSH2 0x7B JUMP JUMPDEST DUP1 PUSH4 0x3441006 EQ PUSH2 0x80 JUMPI DUP1 PUSH4 0xA144391 EQ PUSH2 0xA9 JUMPI DUP1 PUSH4 0x481C6A75 EQ PUSH2 0xE6 JUMPI DUP1 PUSH4 0x82FDE093 EQ PUSH2 0x111 JUMPI JUMPDEST PUSH1 0x0 DUP1 REVERT JUMPDEST CALLVALUE DUP1 ISZERO PUSH2 0x8C JUMPI PUSH1 0x0 DUP1 REVERT JUMPDEST POP PUSH2 0xA7 PUSH1 0x4 DUP1 CALLDATASIZE SUB DUP2 ADD SWAP1 PUSH2 0xA2 SWAP2 SWAP1 PUSH2 0x6E6 JUMP JUMPDEST PUSH2 0x1C3 JUMP JUMPDEST STOP JUMPDEST CALLVALUE DUP1 ISZERO PUSH2 0xB5 JUMPI PUSH1 0x0 DUP1 REVERT JUMPDEST POP PUSH2 0xD0 PUSH1 0x4 DUP1 CALLDATASIZE SUB DUP2 ADD SWAP1 PUSH2 0xCB SWAP2 SWAP1 PUSH2 0x771 JUMP JUMPDEST PUSH2 0x2FB JUMP JUMPDEST PUSH1 0x40 MLOAD PUSH2 0xDD SWAP2 SWAP1 PUSH2 0x7B9 JUMP JUMPDEST PUSH1 0x40 MLOAD DUP1 SWAP2 SUB SWAP1 RETURN JUMPDEST CALLVALUE DUP1 ISZERO PUSH2 0xF2 JUMPI PUSH1 0x0 DUP1 REVERT JUMPDEST POP PUSH2 0xFB PUSH2 0x31B JUMP JUMPDEST PUSH1 0x40 MLOAD PUSH2 0x108 SWAP2 SWAP1 PUSH2 0x7E3 JUMP JUMPDEST PUSH1 0x40 MLOAD DUP1 SWAP2 SUB SWAP1 RETURN JUMPDEST CALLVALUE DUP1 ISZERO PUSH2 0x11D JUMPI PUSH1 0x0 DUP1 REVERT JUMPDEST POP PUSH2 0x126 PUSH2 0x33F JUMP JUMPDEST PUSH1 0x40 MLOAD PUSH2 0x133 SWAP2 SWAP1 PUSH2 0x80D JUMP JUMPDEST PUSH1 0x40 MLOAD DUP1 SWAP2 SUB SWAP1 RETURN JUMPDEST CALLVALUE DUP1 ISZERO PUSH2 0x148 JUMPI PUSH1 0x0 DUP1 REVERT JUMPDEST POP PUSH2 0x163 PUSH1 0x4 DUP1 CALLDATASIZE SUB DUP2 ADD SWAP1 PUSH2 0x15E SWAP2 SWAP1 PUSH2 0x8CB JUMP JUMPDEST PUSH2 0x345 JUMP JUMPDEST STOP JUMPDEST CALLVALUE DUP1 ISZERO PUSH2 0x171 JUMPI PUSH1 0x0 DUP1 REVERT JUMPDEST POP PUSH2 0x17A PUSH2 0x43F JUMP JUMPDEST PUSH1 0x40 MLOAD PUSH2 0x187 SWAP2 SWAP1 PUSH2 0x80D JUMP JUMPDEST PUSH1 0x40 MLOAD DUP1 SWAP2 SUB SWAP1 RETURN JUMPDEST PUSH2 0x198 PUSH2 0x445 JUMP JUMPDEST STOP JUMPDEST CALLVALUE DUP1 ISZERO PUSH2 0x1A6 JUMPI PUSH1 0x0 DUP1 REVERT JUMPDEST POP PUSH2 0x1C1 PUSH1 0x4 DUP1 CALLDATASIZE SUB DUP2 ADD SWAP1 PUSH2 0x1BC SWAP2 SWAP1 PUSH2 0x6E6 JUMP JUMPDEST PUSH2 0x4C5 JUMP JUMPDEST STOP JUMPDEST PUSH1 0x0 DUP1 SLOAD SWAP1 PUSH2 0x100 EXP SWAP1 DIV PUSH20 0xFFFFFFFFFFFFFFFFFFFFFFFFFFFFFFFFFFFFFFFF AND PUSH20 0xFFFFFFFFFFFFFFFFFFFFFFFFFFFFFFFFFFFFFFFF AND CALLER PUSH20 0xFFFFFFFFFFFFFFFFFFFFFFFFFFFFFFFFFFFFFFFF AND EQ PUSH2 0x21B JUMPI PUSH1 0x0 DUP1 REVERT JUMPDEST PUSH1 0x0 PUSH1 0x5 PUSH1 0x0 DUP4 DUP2 MSTORE PUSH1 0x20 ADD SWAP1 DUP2 MSTORE PUSH1 0x20 ADD PUSH1 0x0 KECCAK256 SWAP1 POP PUSH1 0x2 DUP1 SLOAD PUSH2 0x240 SWAP2 SWAP1 PUSH2 0x99D JUMP JUMPDEST DUP2 PUSH1 0x3 ADD SLOAD GT PUSH2 0x24F JUMPI PUSH1 0x0 DUP1 REVERT JUMPDEST DUP1 PUSH1 0x2 ADD PUSH1 0x14 SWAP1 SLOAD SWAP1 PUSH2 0x100 EXP SWAP1 DIV PUSH1 0xFF AND ISZERO PUSH2 0x26B JUMPI PUSH1 0x0 DUP1 REVERT JUMPDEST DUP1 PUSH1 0x2 ADD PUSH1 0x0 SWAP1 SLOAD SWAP1 PUSH2 0x100 EXP SWAP1 DIV PUSH20 0xFFFFFFFFFFFFFFFFFFFFFFFFFFFFFFFFFFFFFFFF AND PUSH20 0xFFFFFFFFFFFFFFFFFFFFFFFFFFFFFFFFFFFFFFFF AND PUSH2 0x8FC DUP3 PUSH1 0x1 ADD SLOAD SWAP1 DUP2 ISZERO MUL SWAP1 PUSH1 0x40 MLOAD PUSH1 0x0 PUSH1 0x40 MLOAD DUP1 DUP4 SUB DUP2 DUP6 DUP9 DUP9 CALL SWAP4 POP POP POP POP ISZERO DUP1 ISZERO PUSH2 0x2D9 JUMPI RETURNDATASIZE PUSH1 0x0 DUP1 RETURNDATACOPY RETURNDATASIZE PUSH1 0x0 REVERT JUMPDEST POP PUSH1 0x1 DUP2 PUSH1 0x2 ADD PUSH1 0x14 PUSH2 0x100 EXP DUP2 SLOAD DUP2 PUSH1 0xFF MUL NOT AND SWAP1 DUP4 ISZERO ISZERO MUL OR SWAP1 SSTORE POP POP POP JUMP JUMPDEST PUSH1 0x4 PUSH1 0x20 MSTORE DUP1 PUSH1 0x0 MSTORE PUSH1 0x40 PUSH1 0x0 KECCAK256 PUSH1 0x0 SWAP2 POP SLOAD SWAP1 PUSH2 0x100 EXP SWAP1 DIV PUSH1 0xFF AND DUP2 JUMP JUMPDEST PUSH1 0x0 DUP1 SLOAD SWAP1 PUSH2 0x100 EXP SWAP1 DIV PUSH20 0xFFFFFFFFFFFFFFFFFFFFFFFFFFFFFFFFFFFFFFFF AND DUP2 JUMP JUMPDEST PUSH1 0x2 SLOAD DUP2 JUMP JUMPDEST PUSH1 0x0 DUP1 SLOAD SWAP1 PUSH2 0x100 EXP SWAP1 DIV PUSH20 0xFFFFFFFFFFFFFFFFFFFFFFFFFFFFFFFFFFFFFFFF AND PUSH20 0xFFFFFFFFFFFFFFFFFFFFFFFFFFFFFFFFFFFFFFFF AND CALLER PUSH20 0xFFFFFFFFFFFFFFFFFFFFFFFFFFFFFFFFFFFFFFFF AND EQ PUSH2 0x39D JUMPI PUSH1 0x0 DUP1 REVERT JUMPDEST PUSH1 0x0 PUSH1 0x5 PUSH1 0x0 PUSH1 0x3 SLOAD DUP2 MSTORE PUSH1 0x20 ADD SWAP1 DUP2 MSTORE PUSH1 0x20 ADD PUSH1 0x0 KECCAK256 SWAP1 POP PUSH1 0x3 PUSH1 0x0 DUP2 SLOAD DUP1 SWAP3 SWAP2 SWAP1 PUSH2 0x3C9 SWAP1 PUSH2 0x9CE JUMP JUMPDEST SWAP2 SWAP1 POP SSTORE POP DUP5 DUP5 DUP3 PUSH1 0x0 ADD SWAP2 SWAP1 PUSH2 0x3E1 SWAP3 SWAP2 SWAP1 PUSH2 0x603 JUMP JUMPDEST POP DUP3 DUP2 PUSH1 0x1 ADD DUP2 SWAP1 SSTORE POP DUP2 DUP2 PUSH1 0x2 ADD PUSH1 0x0 PUSH2 0x100 EXP DUP2 SLOAD DUP2 PUSH20 0xFFFFFFFFFFFFFFFFFFFFFFFFFFFFFFFFFFFFFFFF MUL NOT AND SWAP1 DUP4 PUSH20 0xFFFFFFFFFFFFFFFFFFFFFFFFFFFFFFFFFFFFFFFF AND MUL OR SWAP1 SSTORE POP PUSH1 0x0 DUP2 PUSH1 0x3 ADD DUP2 SWAP1 SSTORE POP POP POP POP POP POP JUMP JUMPDEST PUSH1 0x1 SLOAD DUP2 JUMP JUMPDEST PUSH1 0x1 SLOAD CALLVALUE GT PUSH2 0x453 JUMPI PUSH1 0x0 DUP1 REVERT JUMPDEST PUSH1 0x1 PUSH1 0x4 PUSH1 0x0 CALLER PUSH20 0xFFFFFFFFFFFFFFFFFFFFFFFFFFFFFFFFFFFFFFFF AND PUSH20 0xFFFFFFFFFFFFFFFFFFFFFFFFFFFFFFFFFFFFFFFF AND DUP2 MSTORE PUSH1 0x20 ADD SWAP1 DUP2 MSTORE PUSH1 0x20 ADD PUSH1 0x0 KECCAK256 PUSH1 0x0 PUSH2 0x100 EXP DUP2 SLOAD DUP2 PUSH1 0xFF MUL NOT AND SWAP1 DUP4 ISZERO ISZERO MUL OR SWAP1 SSTORE POP PUSH1 0x2 PUSH1 0x0 DUP2 SLOAD DUP1 SWAP3 SWAP2 SWAP1 PUSH2 0x4BE SWAP1 PUSH2 0x9CE JUMP JUMPDEST SWAP2 SWAP1 POP SSTORE POP JUMP JUMPDEST PUSH1 0x0 PUSH1 0x5 PUSH1 0x0 DUP4 DUP2 MSTORE PUSH1 0x20 ADD SWAP1 DUP2 MSTORE PUSH1 0x20 ADD PUSH1 0x0 KECCAK256 SWAP1 POP PUSH1 0x4 PUSH1 0x0 CALLER PUSH20 0xFFFFFFFFFFFFFFFFFFFFFFFFFFFFFFFFFFFFFFFF AND PUSH20 0xFFFFFFFFFFFFFFFFFFFFFFFFFFFFFFFFFFFFFFFF AND DUP2 MSTORE PUSH1 0x20 ADD SWAP1 DUP2 MSTORE PUSH1 0x20 ADD PUSH1 0x0 KECCAK256 PUSH1 0x0 SWAP1 SLOAD SWAP1 PUSH2 0x100 EXP SWAP1 DIV PUSH1 0xFF AND PUSH2 0x532 JUMPI PUSH1 0x0 DUP1 REVERT JUMPDEST DUP1 PUSH1 0x4 ADD PUSH1 0x0 CALLER PUSH20 0xFFFFFFFFFFFFFFFFFFFFFFFFFFFFFFFFFFFFFFFF AND PUSH20 0xFFFFFFFFFFFFFFFFFFFFFFFFFFFFFFFFFFFFFFFF AND DUP2 MSTORE PUSH1 0x20 ADD SWAP1 DUP2 MSTORE PUSH1 0x20 ADD PUSH1 0x0 KECCAK256 PUSH1 0x0 SWAP1 SLOAD SWAP1 PUSH2 0x100 EXP SWAP1 DIV PUSH1 0xFF AND ISZERO PUSH2 0x58B JUMPI PUSH1 0x0 DUP1 REVERT JUMPDEST PUSH1 0x1 DUP2 PUSH1 0x4 ADD PUSH1 0x0 CALLER PUSH20 0xFFFFFFFFFFFFFFFFFFFFFFFFFFFFFFFFFFFFFFFF AND PUSH20 0xFFFFFFFFFFFFFFFFFFFFFFFFFFFFFFFFFFFFFFFF AND DUP2 MSTORE PUSH1 0x20 ADD SWAP1 DUP2 MSTORE PUSH1 0x20 ADD PUSH1 0x0 KECCAK256 PUSH1 0x0 PUSH2 0x100 EXP DUP2 SLOAD DUP2 PUSH1 0xFF MUL NOT AND SWAP1 DUP4 ISZERO ISZERO MUL OR SWAP1 SSTORE POP DUP1 PUSH1 0x3 ADD PUSH1 0x0 DUP2 SLOAD DUP1 SWAP3 SWAP2 SWAP1 PUSH2 0x5FA SWAP1 PUSH2 0x9CE JUMP JUMPDEST SWAP2 SWAP1 POP SSTORE POP POP POP JUMP JUMPDEST DUP3 DUP1 SLOAD PUSH2 0x60F SWAP1 PUSH2 0xA46 JUMP JUMPDEST SWAP1 PUSH1 0x0 MSTORE PUSH1 0x20 PUSH1 0x0 KECCAK256 SWAP1 PUSH1 0x1F ADD PUSH1 0x20 SWAP1 DIV DUP2 ADD SWAP3 DUP3 PUSH2 0x631 JUMPI PUSH1 0x0 DUP6 SSTORE PUSH2 0x678 JUMP JUMPDEST DUP3 PUSH1 0x1F LT PUSH2 0x64A JUMPI DUP1 CALLDATALOAD PUSH1 0xFF NOT AND DUP4 DUP1 ADD OR DUP6 SSTORE PUSH2 0x678 JUMP JUMPDEST DUP3 DUP1 ADD PUSH1 0x1 ADD DUP6 SSTORE DUP3 ISZERO PUSH2 0x678 JUMPI SWAP2 DUP3 ADD JUMPDEST DUP3 DUP2 GT ISZERO PUSH2 0x677 JUMPI DUP3 CALLDATALOAD DUP3 SSTORE SWAP2 PUSH1 0x20 ADD SWAP2 SWAP1 PUSH1 0x1 ADD SWAP1 PUSH2 0x65C JUMP JUMPDEST JUMPDEST POP SWAP1 POP PUSH2 0x685 SWAP2 SWAP1 PUSH2 0x689 JUMP JUMPDEST POP SWAP1 JUMP JUMPDEST JUMPDEST DUP1 DUP3 GT ISZERO PUSH2 0x6A2 JUMPI PUSH1 0x0 DUP2 PUSH1 0x0 SWAP1 SSTORE POP PUSH1 0x1 ADD PUSH2 0x68A JUMP JUMPDEST POP SWAP1 JUMP JUMPDEST PUSH1 0x0 DUP1 REVERT JUMPDEST PUSH1 0x0 DUP1 REVERT JUMPDEST PUSH1 0x0 DUP2 SWAP1 POP SWAP2 SWAP1 POP JUMP JUMPDEST PUSH2 0x6C3 DUP2 PUSH2 0x6B0 JUMP JUMPDEST DUP2 EQ PUSH2 0x6CE JUMPI PUSH1 0x0 DUP1 REVERT JUMPDEST POP JUMP JUMPDEST PUSH1 0x0 DUP2 CALLDATALOAD SWAP1 POP PUSH2 0x6E0 DUP2 PUSH2 0x6BA JUMP JUMPDEST SWAP3 SWAP2 POP POP JUMP JUMPDEST PUSH1 0x0 PUSH1 0x20 DUP3 DUP5 SUB SLT ISZERO PUSH2 0x6FC JUMPI PUSH2 0x6FB PUSH2 0x6A6 JUMP JUMPDEST JUMPDEST PUSH1 0x0 PUSH2 0x70A DUP5 DUP3 DUP6 ADD PUSH2 0x6D1 JUMP JUMPDEST SWAP2 POP POP SWAP3 SWAP2 POP POP JUMP JUMPDEST PUSH1 0x0 PUSH20 0xFFFFFFFFFFFFFFFFFFFFFFFFFFFFFFFFFFFFFFFF DUP3 AND SWAP1 POP SWAP2 SWAP1 POP JUMP JUMPDEST PUSH1 0x0 PUSH2 0x73E DUP3 PUSH2 0x713 JUMP JUMPDEST SWAP1 POP SWAP2 SWAP1 POP JUMP JUMPDEST PUSH2 0x74E DUP2 PUSH2 0x733 JUMP JUMPDEST DUP2 EQ PUSH2 0x759 JUMPI PUSH1 0x0 DUP1 REVERT JUMPDEST POP JUMP JUMPDEST PUSH1 0x0 DUP2 CALLDATALOAD SWAP1 POP PUSH2 0x76B DUP2 PUSH2 0x745 JUMP JUMPDEST SWAP3 SWAP2 POP POP JUMP JUMPDEST PUSH1 0x0 PUSH1 0x20 DUP3 DUP5 SUB SLT ISZERO PUSH2 0x787 JUMPI PUSH2 0x786 PUSH2 0x6A6 JUMP JUMPDEST JUMPDEST PUSH1 0x0 PUSH2 0x795 DUP5 DUP3 DUP6 ADD PUSH2 0x75C JUMP JUMPDEST SWAP2 POP POP SWAP3 SWAP2 POP POP JUMP JUMPDEST PUSH1 0x0 DUP2 ISZERO ISZERO SWAP1 POP SWAP2 SWAP1 POP JUMP JUMPDEST PUSH2 0x7B3 DUP2 PUSH2 0x79E JUMP JUMPDEST DUP3 MSTORE POP POP JUMP JUMPDEST PUSH1 0x0 PUSH1 0x20 DUP3 ADD SWAP1 POP PUSH2 0x7CE PUSH1 0x0 DUP4 ADD DUP5 PUSH2 0x7AA JUMP JUMPDEST SWAP3 SWAP2 POP POP JUMP JUMPDEST PUSH2 0x7DD DUP2 PUSH2 0x733 JUMP JUMPDEST DUP3 MSTORE POP POP JUMP JUMPDEST PUSH1 0x0 PUSH1 0x20 DUP3 ADD SWAP1 POP PUSH2 0x7F8 PUSH1 0x0 DUP4 ADD DUP5 PUSH2 0x7D4 JUMP JUMPDEST SWAP3 SWAP2 POP POP JUMP JUMPDEST PUSH2 0x807 DUP2 PUSH2 0x6B0 JUMP JUMPDEST DUP3 MSTORE POP POP JUMP JUMPDEST PUSH1 0x0 PUSH1 0x20 DUP3 ADD SWAP1 POP PUSH2 0x822 PUSH1 0x0 DUP4 ADD DUP5 PUSH2 0x7FE JUMP JUMPDEST SWAP3 SWAP2 POP POP JUMP JUMPDEST PUSH1 0x0 DUP1 REVERT JUMPDEST PUSH1 0x0 DUP1 REVERT JUMPDEST PUSH1 0x0 DUP1 REVERT JUMPDEST PUSH1 0x0 DUP1 DUP4 PUSH1 0x1F DUP5 ADD SLT PUSH2 0x84D JUMPI PUSH2 0x84C PUSH2 0x828 JUMP JUMPDEST JUMPDEST DUP3 CALLDATALOAD SWAP1 POP PUSH8 0xFFFFFFFFFFFFFFFF DUP2 GT ISZERO PUSH2 0x86A JUMPI PUSH2 0x869 PUSH2 0x82D JUMP JUMPDEST JUMPDEST PUSH1 0x20 DUP4 ADD SWAP2 POP DUP4 PUSH1 0x1 DUP3 MUL DUP4 ADD GT ISZERO PUSH2 0x886 JUMPI PUSH2 0x885 PUSH2 0x832 JUMP JUMPDEST JUMPDEST SWAP3 POP SWAP3 SWAP1 POP JUMP JUMPDEST PUSH1 0x0 PUSH2 0x898 DUP3 PUSH2 0x713 JUMP JUMPDEST SWAP1 POP SWAP2 SWAP1 POP JUMP JUMPDEST PUSH2 0x8A8 DUP2 PUSH2 0x88D JUMP JUMPDEST DUP2 EQ PUSH2 0x8B3 JUMPI PUSH1 0x0 DUP1 REVERT JUMPDEST POP JUMP JUMPDEST PUSH1 0x0 DUP2 CALLDATALOAD SWAP1 POP PUSH2 0x8C5 DUP2 PUSH2 0x89F JUMP JUMPDEST SWAP3 SWAP2 POP POP JUMP JUMPDEST PUSH1 0x0 DUP1 PUSH1 0x0 DUP1 PUSH1 0x60 DUP6 DUP8 SUB SLT ISZERO PUSH2 0x8E5 JUMPI PUSH2 0x8E4 PUSH2 0x6A6 JUMP JUMPDEST JUMPDEST PUSH1 0x0 DUP6 ADD CALLDATALOAD PUSH8 0xFFFFFFFFFFFFFFFF DUP2 GT ISZERO PUSH2 0x903 JUMPI PUSH2 0x902 PUSH2 0x6AB JUMP JUMPDEST JUMPDEST PUSH2 0x90F DUP8 DUP3 DUP9 ADD PUSH2 0x837 JUMP JUMPDEST SWAP5 POP SWAP5 POP POP PUSH1 0x20 PUSH2 0x922 DUP8 DUP3 DUP9 ADD PUSH2 0x6D1 JUMP JUMPDEST SWAP3 POP POP PUSH1 0x40 PUSH2 0x933 DUP8 DUP3 DUP9 ADD PUSH2 0x8B6 JUMP JUMPDEST SWAP2 POP POP SWAP3 SWAP6 SWAP2 SWAP5 POP SWAP3 POP JUMP JUMPDEST PUSH32 0x4E487B7100000000000000000000000000000000000000000000000000000000 PUSH1 0x0 MSTORE PUSH1 0x12 PUSH1 0x4 MSTORE PUSH1 0x24 PUSH1 0x0 REVERT JUMPDEST PUSH32 0x4E487B7100000000000000000000000000000000000000000000000000000000 PUSH1 0x0 MSTORE PUSH1 0x11 PUSH1 0x4 MSTORE PUSH1 0x24 PUSH1 0x0 REVERT JUMPDEST PUSH1 0x0 PUSH2 0x9A8 DUP3 PUSH2 0x6B0 JUMP JUMPDEST SWAP2 POP PUSH2 0x9B3 DUP4 PUSH2 0x6B0 JUMP JUMPDEST SWAP3 POP DUP3 PUSH2 0x9C3 JUMPI PUSH2 0x9C2 PUSH2 0x93F JUMP JUMPDEST JUMPDEST DUP3 DUP3 DIV SWAP1 POP SWAP3 SWAP2 POP POP JUMP JUMPDEST PUSH1 0x0 PUSH2 0x9D9 DUP3 PUSH2 0x6B0 JUMP JUMPDEST SWAP2 POP PUSH32 0xFFFFFFFFFFFFFFFFFFFFFFFFFFFFFFFFFFFFFFFFFFFFFFFFFFFFFFFFFFFFFFFF DUP3 EQ ISZERO PUSH2 0xA0C JUMPI PUSH2 0xA0B PUSH2 0x96E JUMP JUMPDEST JUMPDEST PUSH1 0x1 DUP3 ADD SWAP1 POP SWAP2 SWAP1 POP JUMP JUMPDEST PUSH32 0x4E487B7100000000000000000000000000000000000000000000000000000000 PUSH1 0x0 MSTORE PUSH1 0x22 PUSH1 0x4 MSTORE PUSH1 0x24 PUSH1 0x0 REVERT JUMPDEST PUSH1 0x0 PUSH1 0x2 DUP3 DIV SWAP1 POP PUSH1 0x1 DUP3 AND DUP1 PUSH2 0xA5E JUMPI PUSH1 0x7F DUP3 AND SWAP2 POP JUMPDEST PUSH1 0x20 DUP3 LT DUP2 EQ ISZERO PUSH2 0xA72 JUMPI PUSH2 0xA71 PUSH2 0xA17 JUMP JUMPDEST JUMPDEST POP SWAP2 SWAP1 POP JUMP INVALID LOG2 PUSH5 0x6970667358 0x22 SLT KECCAK256 0x29 DUP15 0xB0 MULMOD SIGNEXTEND 0xCC 0xB8 0xDA 0x4A 0x23 0x5C 0xB1 STOP BALANCE 0x29 PUSH3 0x747E5C PUSH21 0x6385665BE0895F11E71B544564736F6C6343000809 STOP CALLER LOG2 PUSH5 0x6970667358 0x22 SLT KECCAK256 PUSH11 0x89D2F95A4E2251B5DA4DCD 0x4B MUL 0xF8 SDIV SHR PUSH15 0x76F987BB4711565FB1DC0DFA9D1764 PUSH20 0x6F6C634300080900330000000000000000000000 "
    },
    "gasEstimates": {
      "creation": {
        "codeDepositCost": "855400",
        "executionCost": "890",
        "totalCost": "856290"
      },
      "external": {
        "createCampaign(uint256)": "infinite",
        "deployedCampaigns(uint256)": "infinite",
        "getDeployedCampaigns()": "infinite"
      }
    },
    "methodIdentifiers": {
      "createCampaign(uint256)": "a3303a75",
      "deployedCampaigns(uint256)": "339d50a5",
      "getDeployedCampaigns()": "4acb9d4f"
    }
  },
  "storageLayout": {
    "storage": [
      {
        "astId": 5,
        "contract": "Campaign.sol:CampaignFactory",
        "label": "deployedCampaigns",
        "offset": 0,
        "slot": "0",
        "type": "t_array(t_contract(Campaign)255)dyn_storage"
      }
    ],
    "types": {
      "t_array(t_contract(Campaign)255)dyn_storage": {
        "base": "t_contract(Campaign)255",
        "encoding": "dynamic_array",
        "label": "contract Campaign[]",
        "numberOfBytes": "32"
      },
      "t_contract(Campaign)255": {
        "encoding": "inplace",
        "label": "contract Campaign",
        "numberOfBytes": "20"
      }
    }
  },
  "userdoc": {
    "kind": "user",
    "methods": {},
    "version": 1
  }
}